:100000000C943D000C9491010C9491010C9491017D
:100010000C9491010C9491010C9491010C94910118
:100020000C9491010C9491010C9491010C94550144
:100030000C9491010C9491010C9491010C949101F8
:100040000C9491010C9491010C9494000C94050172
:100050000C9491010C9491010C9491010C949101D8
:100060000C9491010C9491010100018280018201A4
:100070008300032601830187800011241FBECFEF78
:10008000D8E0DEBFCDBFE8E6F0E040E017C0B591B4
:10009000A59135912591059107FD0CC0959185910C
:1000A000EF01F92FE82F05900D92A217B307D9F7AA
:1000B000FE0104C01D92A217B307E1F7E937F40768
:0E00C00031F70E94D3000C946500F894FFCF36
:1000CE00415252414E434120454C20544553540D0C
:1000DE000A00486520726563696269646F3A000DB3
:1000EE000A004552524F523A20427566666572209A
:1000FE006C6C656E6F2E2045737065726120612089
:10010E00717565207465726D696E6520656C2072FF
:0A011E0065656E76696F2E0D0A000C
:100128001F920F920FB60F9211248F939F93EF9304
:10013800FF938091C60090918101913021F481E074
:100148008093800123C08A3091F08D3081F09091A6
:1001580086019F33D8F4E0918601F0E0E050FF4F2C
:100168008083809186018F5F809386010FC0809184
:100178008601882359F0E0918601F0E0E050FF4FB6
:10018800108281E08093810110928601FF91EF91A6
:0E0198009F918F910F900FBE0F901F901895A2
:1001A6000E94870178946EEC70E080E00E947301F3
:1001B600809181018130D1F460EE70E080E00E9490
:1001C60073012FEF80E792E0215080409040E1F7E5
:1001D60000C0000060E071E080E80E9473016DEEEF
:1001E60070E080E00E94730110928101809180018D
:1001F6008130F1F660EF70E080E00E9473011092AA
:040206008001D6CFCE
:10020A001F920F920FB60F9211248F93EF93FF93C1
:10021A00E0918501F0E0E05CFE4F8081882371F077
:10022A00E0918501F0E0E05CFE4F80818093C6009A
:10023A00809185018F5F8093850107C010928501A7
:10024A00E1ECF0E080818F7D8083FF91EF918F91C7
:0A025A000F900FBE0F901F90189533
:10026400CF92DF92EF926A01E62EDC01211531056F
:10027400B1F0F6014491E7FC40814C93442341F0F2
:10028400215031094FEFC41AD40AE40A1196EECF73
:100294002A0F3B1F2A173B0711F01D92FBCFEF904B
:0602A400DF90CF900895E9
:1002AA001F920F920FB60F9211248F939F938091F2
:1002BA0083018F5F809383019091830180918201F2
:1002CA00981728F081E080938401109283019F910E
:0C02DA008F910F900FBE0F901F90189591
:1002E6009091C10095FD0FC0AB01682F2FE330E060
:1002F60080E491E00E94320110923F01E1ECF0E0CF
:0803060080818062808308956C
:10030E0086E08093C20087E68093C40088E98093DC
:04031E00C10008957D
:040322000C94000037
:010326006472
:00000001FF
