:100000000C9443000C9426190C9426190C94261970
:100010000C94090D0C9426190C9426190C9426198D
:100020000C9426190C9426190C9426190C94B012D1
:100030000C9426190C9426190C9426190C94261944
:100040000C9426190C9426190C94CB130C94C015FF
:100050000C9426190C9426190C9426190C94261924
:100060000C9426190C942619010002E98002E90279
:10007000EB00325A02EB02ED8002ED02EF00325C3F
:1000800002EF02FA800011241FBECFEFD8E0DEBFDE
:10009000CDBFE8E6F0E040E017C0B591A5913591FD
:1000A0002591059107FD0CC095918591EF01F92FE0
:1000B000E82F05900D92A217B307D9F7FE0104C0EF
:1000C0001D92A217B307E1F7E538F40731F70E9454
:0A00D000A9080C94AE18F894FFCFB5
:1000DA005345545F54494D453D25643A25643A25B4
:1000EA0064005345545F544D3D25640041525241CA
:1000FA004E434120454C20544553540D0A004E4F5F
:10010A00524D414C00414C45525441005B2530321E
:10011A00753A253032753A253032755D20543A20C9
:10012A0025752043207C20483A2025752525207CEA
:10013A002045737461646F3A2025730D0A005B4190
:10014A004C455254415D205B253032753A25303298
:10015A00753A253032755D20506172616D65747231
:10016A006F732066756572612064652072616E67BF
:10017A006F206F7074696D6F2120543A20257520A5
:10018A0043207C20483A20257525250D0A00455232
:10019A00524F522053454E534F520D0A000D0A003A
:1001AA00434F4D414E444F20494E56414C49444FCE
:0301BA000D0A002B
:1001BD0068076C094C836A9074A07AC000806888C7
:0601CD0000846C82008139
:0701D300286E756C6C290019
:0601DA00286E696C29008B
:1001E000A0E9B1E0E6EFF0E00C944D177C01690165
:1001F00049835A836B831D821C82612C712C4E01B2
:1002000026E0820E911C29819A818B81E22FF92FA1
:10021000949187FD9081992309F420C38AE0D40149
:100220001D928A95E9F7E1E1F1E0EC0FFD1FFD87F2
:10023000EC8780E890E09F878E87BE016F5F7F4FDD
:10024000C7010E945D158C0189819A81AB81FC01F7
:100250002491A7FD208121110EC02C813D81020F28
:10026000131F1D830C83FC012491A7FD20812532DF
:1002700009F0DDC232C0253281F3C7010E94291185
:100280005C0189819A81AB81BFEFAB16BB0689F017
:10029000FC012491A7FD2081022E000C330BA21635
:1002A000B30639F0B701C5010E942E178EEF9FEFFC
:1002B000C9C22C813D812F5F3F4F3D832C83019626
:1002C000A11D89839A83AB83BE016F5F7F4FC701F6
:1002D0000E945D15080F191FB7CF9C014A2F2F5F91
:1002E0003F4F4F4F29833A834B831B861A86F90170
:1002F000249147FD20812A3241F40296A11D898371
:100300009A83AB8301E010E002C000E010E0698155
:100310007A818B810E9442139B878A8729813A8147
:100320004B81F901849147FD8081082E000C990BC7
:10033000C0970A9738F42F5F3F4F4F4F29833A8376
:100340004B83ECCFCE0101960E94CA11582E298111
:100350008A819B81E22FF82F849197FD8081082E5E
:10036000000C990B0E940B198836910544F58536CF
:1003700091050CF0D5C08136910509F4D1C064F423
:1003800029813A814B818532910509F434C18B353D
:10039000910509F449C143C28336910509F4DFC0D0
:1003A0008436910509F03BC29E012C5F3F4FA401AA
:1003B000BE01605F7F4FC7010E94EF1524C08037E8
:1003C000910509F468C0A4F48E36910509F484C03F
:1003D000CCF58936910509F022C29E012C5F3F4F72
:1003E000A401BE01605F7F4FC7010E94E7090BC0F7
:1003F00085379105E1F08837910579F183379105CB
:1004000009F00DC2D4C097FD1DC289819A81AB81CC
:100410000196A11D89839A83AB830115110509F00B
:100420007CC0652D70E0960141E050E050C09E0117
:100430002C5F3F4FA401BE01605F7F4FC7010E9448
:10044000161615C09E012C5F3F4FA401BE01605FD0
:100450007F4FC7010E94780E0AC09E012C5F3F4F5C
:10046000A401BE01605F7F4FC7010E94C70B97FDCB
:10047000E9C189819A81AB810196A11D89839A8303
:10048000AB830115110509F048C0652D70E0960198
:1004900040E050E01CC09E012C5F3F4FA401BE0114
:1004A000605F7F4FC7010E94C70B97FDCBC1898159
:1004B0009A81AB810196A11D89839A83AB83011533
:1004C000110559F5960140E050E060EF70E0CE0173
:1004D00040960E946E0CB6C189819A81AB810196CB
:1004E000A11D89839A83AB839D812C81892F880FDD
:1004F000880B288B998B8A8B8B8B8C8B8D8B8E8B1F
:100500008F8B0115110549F4652D70E0960140E0CF
:1005100050E0CE0140960E946E0C80E090E092C1C7
:100520009E012C5F3F4FA401BE01605F7F4FC7015A
:100530000E94231997FD86C189819A81AB8101961A
:10054000A11D89839A83AB830115110531F7652DB0
:1005500070E0A601CE0140960E94F41473C1E0E859
:100560005E125DC18A859B85892B21F481E090E034
:100570009B878A8789819A81AB810196A11D898396
:100580009A83AB83012B59F4D601ED91FC9111971D
:10059000CF0103968D939C930081118102C000E0EE
:1005A00010E09E012C5F3F4F40E050E01FC0B0E8DC
:1005B0005B1235C189819A81AB810196A11D898326
:1005C0009A83AB83012B59F4D601ED91FC911197DD
:1005D000CF0103968D939C930081118102C000E0AE
:1005E00010E09E012C5F3F4F41E050E0B401C70195
:1005F0000E944D0F27C1B0E85B1211C12F5F3F4F22
:100600004F4F29833A834B83C7010E9429118532BA
:10061000910531F48C819D8101969D838C83FCC072
:10062000B7010E942E1779CFE0E85E12F8C0012BC7
:1006300059F4D601ED91FC911197CF0103968D935A
:100640009C930081118102C000E010E0A42FC90139
:100650000196A11D89839A83AB83FC018491A7FD38
:1006600080818E3549F42E5F3F4F4F4F29833A8367
:100670004B83BB24B39401C0B12C41E051E06B2DFE
:1006800070E0CE0140960E94D618188A89819A811E
:10069000AB81FC012491A7FD20812D3259F40196F4
:1006A000A11D89839A83AB8381E08B198EAF51E0C2
:1006B0005B1927C02D35D9F70196A11D89839A832F
:1006C000AB8381E08B19AF968FAFAF97F0CF8823C4
:1006D00009F45AC08D32F9F089819A81AB81FC010D
:1006E0002491A7FD2081E1E1F0E0EC0FFD1FE20F76
:1006F000F11D27FDFA9550830196A11D89839A83E8
:10070000AB8329813A814B81F901849147FD808136
:100710008D35E9F639C06C819D818E81E62FF92FE8
:10072000949187FD90819923B9F29D35A9F22F5FAD
:100730003F4F4F4F29833A834B83EEEFFFEFEC0F90
:10074000FD1F6081AFEFBFEFAC0FBD1F8C91988193
:10075000E62FF82F849197FD8081082E000C990BCD
:10076000F901649147FD6081062E000C770B861716
:1007700097070CF0B1CF0196E0E1F0E0EC0FFD1F20
:10078000E80FF91F5083ECCF01151105D1F01801C6
:100790002101401A510AC7010E9429115C01E1E1BF
:1007A000F0E0EC0FFD1FE80FF91F80818823F1F0C6
:1007B000F101A1921F018C819D8101969D838C8303
:1007C000E7CFC7010E9429115C01E1E1F0E0EC0FE5
:1007D000FD1FE80FF91F8081882331F08C819D81F6
:1007E00001969D838C83EDCF412C512CB701C5011F
:1007F0000E942E1789819A81AB810196A11D898360
:100800009A83AB834114510451F00115110539F05D
:10081000F801E40DF51D108281E090E013C089819C
:100820009A81AB810196A11D89839A83AB8381E074
:1008300090E0FFEFAF16BF0611F080E090E09195D9
:100840008195910997FD03C0680E791EDCCC8F3F1E
:100850002FEF920719F46114710409F0C301C05716
:08086000DE4FE2E10C94691780
:100868002F923F924F926F927F928F929F92AF9268
:10087800BF92CF92DF92EF92FF920F931F93CF9385
:10088800DF93CDB7DEB72E970FB6F894DEBF0FBE55
:10089800CDBF4C016B0138011A8219828FEF9FEF8F
:1008A8009C838B831E821D8258874F833A872987B2
:1008B800A12CB12CD6012D913D914C912A0D3B1DB7
:1008C800411DB7FC4A95F901849147FD808181114A
:1008D80016C0F601208331834283F901849147FDD4
:1008E8008081853209F00FC21901442EFFEF2F1ABB
:1008F8003F0A4F0AD6012D923D924C921BC0853279
:1009080041F3B401082E000C990B0E9419124FEF05
:10091800A41AB40ACFCF2C32DCF02D3229F5298164
:100928003A8121603A8329830196A11DF6018083CB
:100938009183A283F60180819181A281FC01249197
:10094800A7FD20812B3239F729813A812460EACF2B
:10095800203221F429813A812860E4CF233251F4EE
:1009680029813A812061DECF203321F429813A811F
:100978002260D8CFB701C6010E9447149E838D8399
:1009880097FF0BC029813A81F1E02F273A83298309
:100998009195819591099E838D8389819A8180FFA4
:1009A80003C08D7F9A838983F60180819181A2811A
:1009B800FC012491A7FD20812E3261F40196A11D2E
:1009C800F60180839183A283B701C6010E94471470
:1009D8009C838B83C6010E94CA11182FD6012C91C3
:1009E80011968C91119712969C91E22FF82F849171
:1009F80097FD8081082E000C990B0E940B198936EF
:100A080009F44AC084F4833609F419C134F48532F0
:100A180009F445C18136E1F050C18436E9F18836E0
:100A28000CF4E9C04AC1803709F4B0C03CF48E36F2
:100A380009F4D6C08F3609F46DC03FC1853709F473
:100A48004AC0883709F485C0833709F036C10DC11B
:100A5800612F70E0A701CE010B960E940000892B40
:100A680009F448C1F60180819181A2819C014A2F35
:100A78002F5F3F4F4F4F208331834283FC012491E6
:100A8800A7FD2081AE01455F5F4FBE016F5F7F4FBD
:100A9800C4010E9400002BC1612F70E0970141E062
:100AA80050E0CE010B960E940B0E892B09F422C14F
:100AB800F60180819181A2810196A11D8083918395
:100AC800A283AE01455F5F4FBE016F5F7F4FC401D8
:100AD8000E94980D0CC1612F70E0970140E050E032
:100AE800CE010B960E940B0E892B09F403C1F60167
:100AF80080819181A2810196A11D80839183A28327
:100B0800AE01455F5F4FBE016F5F7F4FC4010E941A
:100B1800FA12EDC0612F70E0970140E050E0CE017D
:100B28000B960E940B0E892B09F4E4C0F601808114
:100B38009181A2810196A11D80839183A283AE0138
:100B4800455F5F4FBE016F5F7F4FC4010E947D10FC
:100B5800CEC0612F70E0970140E050E0CE010B96C7
:100B68000E940B0E892B09F4C5C0F6018081918182
:100B7800A2819C014A2F2F5F3F4F4F4F2083318323
:100B88004283FC012491A7FD208120C0970140E009
:100B980050E060EF70E0CE010B960E940B0E892B9F
:100BA80009F4A8C0F60180819181A2810196A11D56
:100BB80080839183A2838B859C85892B31F400E007
:100BC80010E02AED31E040E08CC028E7AE01455F37
:100BD8005F4FBE016F5F7F4FC4010E94DA0A87C072
:100BE800A501460D571D612F70E09701CE010B96A8
:100BF8000E9400007FC0612F70E0A701CE010B9614
:100C08000E940000892B09F475C0F601808191814A
:100C1800A2819C014A2F2F5F3F4F4F4F2083318382
:100C28004283FC012491A7FD2081AE01455F5F4FFF
:100C3800BE016F5F7F4FC4010E94000058C010388A
:100C480009F058C0F60180819181A2810196A11D09
:100C580080839183A283D701ED91FC911197CF01F5
:100C680002968D939C93808126C0103809F042C06B
:100C7800F60180819181A2810196A11D80839183D3
:100C8800A283D701ED91FC911197CF0103968D9323
:100C98009C9320813181428100E010E022C010380D
:100CA80049F5F6012081318142812F5F3F4F4F4F37
:100CB8002083318342838B870EC085E28B87F601C0
:100CC8002082318242821A8219821E821D828FEF0F
:100CD8009FEF9C838B839E01255F3F4F40E801E097
:100CE80010E0BE016F5F7F4FC4010E940A148A0D95
:100CF8009B1D0AC0F60180819181A2810196A11DE8
:100D080080839183A283C5012E960FB6F894DEBF27
:100D18000FBECDBFDF91CF911F910F91FF90EF9044
:100D2800DF90CF90BF90AF909F908F907F906F9003
:080D38004F903F902F900895A9
:100D4000ACE1B0E0E6EAF6E00C944D171B01482E4A
:100D5000598748873A8329830A8F253231051CF445
:100D60002130310539F486E190E09093E3028093DD
:100D7000E202A4C161157105810509F4B8C1FB0146
:100D8000149147FC1081112309F498C1842C31017E
:100D9000103239F0812F012E000C990B099705971D
:100DA00048F4FFEF6F1A7F0A8F0AF301149187FC52
:100DB0001081EECF1D3259F42FEF621A720A820AA7
:100DC000F301149187FC108131E0388B0BC01B328A
:100DD00041F48FEF681A780A880AF301149187FCAE
:100DE0001081188A103309F052C0E82C63019FEF7C
:100DF000C91AD90AE90AF6011491E7FC1081898120
:100E00009A818F7E892B09F044C0812F8F7D883590
:100E1000A9F5E2E06E0E711C811CF301149187FCB0
:100E20001081812F8062082E000C990B8156910948
:100E3000212F012E000C330B3A8329834A9738F077
:100E400089819A810E940E18892B41F066C189819F
:100E50009A810E94DF188753803194F336018E2CDB
:100E600088859985892B09F030C11B82512C912CE2
:100E70001C8E1B8E1C821D821E825FC1E981FA813D
:100E8000EF2B09F452C136018E2C01E00DC000E0B9
:100E900003C036018E2C01E029813A81232B21F4F5
:100EA0008AE090E09A8389839A8D992399F0E88962
:100EB000E1111FC0FFEFFA8B2FEF2B8B3FEF3C8B25
:100EC0008FEF8D8B9FEF9E8BEFEFEF8BF88F2FE7E0
:100ED000298F18C03FEF3A8B8FEF8B8B9FEF9C8B46
:100EE000EFEFED8BFFEFFE8B2FEF2F8B388F898F7E
:100EF00009C01A8A1B8A1C8A1D8A1E8A1F8A188E9C
:100F000090E8998F198A1B82512C912C1C8E1B8E74
:100F10001C821D821E82EA81EE0FEE0BEA87212FD2
:100F20002062022E000C330B21563109812F012E35
:100F3000000C990B2A31310528F40E94DF188753E1
:100F40008F8306C0C0970A9708F096C010531F837E
:100F5000FF818F2FFF0F990B29813A818217930709
:100F60000CF08AC03989311163C0AB80B52CC92C13
:100F7000DC8CEB8CFC800D811E8129813A814A85B5
:100F8000542F642F742F842F942F0E947A115901AB
:100F90006A017B018C019F81990F990B2F81392F59
:100FA000492F592F692F792F892F0E94F1182F83EC
:100FB0003B874C875D876E877F87B82FA92F2B8152
:100FC000352D492D5C8D6B8D7C818D819E81AF800F
:100FD000BB84CC84DD84EE84FF840B2F1A2F0E9407
:100FE000FA1809F070F48A8D882381F12A893B89E7
:100FF0004C895D896E897F89888D998D0E94FA1848
:1010000028F5E2E2F0E0F093E302E093E202FA89ED
:10101000FF832B892B873C893C878D898D879E890F
:101020009E87EF89EF87B88DA98DF1E0F98B0EC00F
:101030002B812F835B869C863C8D3D878B8D8E8795
:101040009C819F87BD81AE81E1E0E98BFFEF6F1A44
:101050007F0A8F0AF301149187FC108101E02F8130
:101060002B835B849C843D853C8F8E858B8F9F85F5
:101070009C83BD83AE8353CFE989E11115C0F88904
:10108000FF2391F02B81352D492D5C8D6B8D7C815B
:101090008D819E810E946A182B83532E942E5C8F23
:1010A0006B8F7C838D839E8328853985232B09F460
:1010B00044C0011112C0842C31010FC0E885F985AC
:1010C000EF2B09F4D2CE842C31011B82512C912CB0
:1010D0001C8E1B8E1C821D821E82A42DC101B0E0BD
:1010E000A7FF15C0E885F9857182608226C0288532
:1010F0003985232B09F4B9CE612C712C812C1B82EC
:10110000512C912C1C8E1B8E1C821D821E82E88508
:10111000F98560827182828210C0E82C630100E050
:1011200020E130E03A83298305C001E088E090E0C7
:101130009A83898336018E2CB7CE2B81352D492D8C
:101140005C8D6B8D7C818D819E816C96E2E10C942F
:0211500069171D
:10115200E8E6F0E0808182608083ECE6F0E0808166
:101162008E7F80830E94481883B7817F83BF83B7B5
:10117200816083BF0E94C3180E94CD18789466EFE5
:1011820070E080E00E94CD178091F502882321F063
:101192001092F5020E94EE168091F602882309F45D
:1011A200ACC01092F60261EE72E08EE892E00E940C
:1011B2000E178091F702811195C000918E02209145
:1011C200E10240910C02609180018091E0020E9454
:1011D2009115882361F027E030E048E051E060E0BB
:1011E20082E891E00E9484171092EF0214C027E077
:1011F20030E04FE051E060E082E891E00E94841725
:101202008091EF02811104C082E08093EF0203C05B
:1012120081508093EF028091EF02823079F182E86F
:1012220091E0A0E8AF939F938F9380918E021F92DB
:101232008F938091E1021F928F9380910C021F92F3
:101242008F93809180011F928F938091E0021F9271
:101252008F9386E191E0A0E0AF939F938F9388E014
:1012620091E09F938F930E9435188DB79EB7429657
:101272000FB6F8949EBF0FBE8DBF2AC01092F00227
:1012820080918E021F928F938091E1021F928F9321
:1012920080910C021F928F93809180011F928F93F5
:1012A2008091E0021F928F9388E491E0A0E0AF93D7
:1012B2009F938F9388E091E09F938F930E943518BC
:1012C200EDB7FEB73F960FB6F894FEBF0FBEEDBF67
:1012D2008091F1028111FCCF68E071E080E80E9408
:1012E200CD170BC01092F7028091F1028111FCCF51
:1012F20068E971E080E00E94CD178091F7028823AF
:1013020059F01092F7028091F1028111FCCF68E945
:1013120071E080E00E94CD178091F302882309F4E6
:1013220033CF1092F3024CE851E060E880E992E09A
:101332000E9489188091F1028111FCCFC0E9D2E0AC
:10134200FE0101900020E9F7CF0123E030E047EAF7
:1013520051E060E001970E9484176E01F0E8EF2EE1
:101362008E2DB6010E94CD170FE812E02DE832E073
:1013720041E851E08E2DB6010E94B30F882349F057
:1013820040918F0260918D02809181010E946316CB
:10139200FBCE4EEE52E08E2DB6010E94BD14882384
:1013A20059F08091EE0224E6829FC00111249093AD
:1013B200EA028093E902E8CE8091F1028111FCCF2A
:0C13C2006AEA71E080E00E94CD17DECEE8
:1013CE00A8E0B0E0EDEEF9E00C944D174C017887F3
:1013DE006F83FA015901848195819A838983E08410
:1013EE00F18426803780C4010E94A916F501208160
:1013FE003181820F931F9183808389819A81892BFA
:10140E0021F4F7013197FA83E9834AE0C42ED12CF7
:10141E00612C712C00E010E0C70101979E838D8333
:10142E0089819A81081719070CF097C0ED81FE810A
:10143E000E171F070CF091C0C4010E9429117C01E8
:10144E009FEFE916F90639F4101611060CF485C053
:10145E008FEF9FEFA4C001151105B1F4EBE2EE166C
:10146E00F10421F0FDE2EF16F10471F4F101E082D6
:10147E00F501808191810196918380836624639426
:10148E00712C01E010E0CCCFC101800F911F9C8325
:10149E008B8306151705C1F538019FEF691A790A76
:1014AE00EAE0CE16D10441F4F0E3EF16F10451F563
:1014BE0028E0C22ED12C28C088E0C816D10411F520
:1014CE00C701806288379105E9F4C4010E94291191
:1014DE002C01B4010E942E17C2010E94FA17892B0B
:1014EE0071F0EB81FC81E0828301F50180819181B5
:1014FE0001969183808390E1C92ED12C91CFB401B6
:10150E00C20111C0612C712CC701C0970A9770F0EF
:10151E00F0E1CF16D10429F4C7010E94FA17892BE6
:10152E0081F4B401C7010E942E1717C088E0C816B7
:10153E00D10439F498E3E916F1041CF08AE0C82EC0
:10154E00D12CEB81FC81E0820F5F1F4FF501808172
:10155E00918101969183808363CFF101E00FF11F9A
:10156E001082B10180E8FAE0CF16D10439F42AE0F6
:10157E0030E040E050E00E94131905C0960140E0B3
:10158E0050E00E941919EF81F88520833183428340
:10159E005383648375838683978380E090E02896D7
:0615AE00E2E10C94691754
:1015B400AFE0B0E0E0EEFAE00C944D171C016B01D3
:1015C4005A8349832B83FB01828193818480958094
:1015D400E080F180A680B78097FD03C0E894E1F82D
:1015E40002C081E090E0E981FA814080518062800C
:1015F40073809701207133273D832C838401E4FE9B
:1016040007C0411451046104710411F0025011091E
:10161400F701E870FF27FF83EE83E3FE02C0015069
:101624001109F6010084F185E02D3197FF87EE87DB
:10163400EA0DFB1D10829C01201B310B3987288782
:10164400C701827099279B878A87EB818E2FEE0FC3
:10165400990B9C01215431093D872C872E853F85A8
:101664002230310530F48C819D81892B09F041C0F1
:101674005BC0411451046104710459F18E859F8546
:1016840001979F878E87C2018F7099278A309105B1
:1016940014F4C09602C0895A9F4FEC85FD857A9751
:1016A40048F49C012062215631092A31310510F495
:1016B4000E94DF18EE85FF85EA0DFB1D8083015033
:1016C400110984E076946794579447948A95D1F7E6
:1016D400C5CF88859985800F911F1816190674F255
:1016E400101611060CF0BFCFEA85FB85EF2B31F6FF
:1016F400BACFE981FA8180819181A281B381892B5A
:101704008A2B8B2B89F0EE85FF85EA0DFB1D319723
:101714002B8120838E859F8502979F878E87FC016E
:10172400EA0DFB1D80E38083EE81FF81EF2B59F0EE
:101734002E853F85215031093F872E87F901EA0D17
:10174400FB1D80E28083F60120853185215031091B
:101754008E859F85281B390B8A0D9B1DAC0160E883
:101764008401C1010E9465129C01F1018081918173
:1017740090FF06C0F60182819381821793070CF4CF
:0A178400C9012F96E2E10C946917E9
:10178E00A4E0B0E0EDECFBE00C944D177C017C8303
:10179E006B83FA01590144805580C084D1846680E0
:1017AE0077800E94A916F50120813181820F931F47
:1017BE00918380834114510421F42601F1E04F1AE4
:1017CE005108130100E010E0C60101979A83898346
:1017DE00041515050CF042C089819A810817190766
:1017EE00ECF5C7010E9429116C019FEFC916D906AD
:1017FE0031F41016110694F18FEF9FEF64C0C601FD
:10180E000E94FA17892BF1F401301105B1F4C601CB
:10181E000E940B198837910581F4F3018081803382
:10182E0061F4C7010E9429114C01B7010E942E17C5
:10183E00C4010E94FA17892B29F4B701C6010E9430
:10184E002E170CC0F101C1921F010F5F1F4FF50142
:10185E0080819181019691838083BACFD301A00FAD
:10186E00B11F1C92033011053CF4EB81FC811082F8
:10187E0011821282138221C0F301329600E010E031
:10188E009801819190ED980F9A3018F0806299EA44
:10189E00980F84E0000F111F221F331F8A95D1F776
:1018AE00090F111D211D311DAE17BF0751F7EB8119
:1018BE00FC81008311832283338314821582168266
:0E18CE00178280E090E02496E2E10C94691706
:1018DC00CF93DF93FC01D9016838710521F18CF4A9
:1018EC006138710561F12CF46038710509F476C02A
:1018FC0085C062387105B1F16438710509F46EC0A8
:10190C007DC0603A710509F469C024F46039710531
:10191C0049F174C0603C710509F460C0603F710509
:10192C0009F45CC06BC0CD91DC911197CE0103968C
:10193C008D939C93A881B98180818C935CC0CD914F
:10194C00DC911197CE0103968D939C93A881B9815C
:10195C0040815181628173814D935D936D937C9332
:10196C00139749C0CD91DC911197CE0103968D93BD
:10197C009C93452B99F07081618152814381348114
:10198C00258196818781E881F981708361835283F7
:10199C00438334832583968387832DC0A881B981A3
:1019AC007081618152814381348125819681878147
:1019BC007C9311966C93119712965C9312971396D5
:1019CC004C93139714963C93149715962C93159748
:1019DC0016969C93169717968C930DC0CD91DC910F
:1019EC001197CE0103968D939C93A881B981808128
:1019FC0091818D939C9381E090E002C080E090E017
:061A0C00DF91CF91089567
:101A12001F920F920FB60F9211242F933F934F9361
:101A22005F938F939F93EF93FF93809184009091A4
:101A320085009093010180930001309B05C0909333
:101A420003018093020166C020910401222319F050
:101A5200109204015FC020910201309103018217AC
:101A6200930730F4805E914B9093010180930001C3
:101A72008091000190910101821B930B90930601CA
:101A8200809305012091ED022F3F59F48D58910961
:101A9200879718F41092ED023DC081E08093F7021F
:101AA20039C02832BCF589579109879718F5E22F7A
:101AB200222314F4E7E0E20FE595E595E5950E2E75
:101AC200000CFF0B822F87781CF48150886F8F5F88
:101AD20047E050E0481B510987FD539581E090E0B3
:101AE20002C0880F991F4A95E2F7EC51FD4F908191
:101AF200892B80832F5F2093ED02283259F4ECE684
:101B0200F0E080818E7F808381E08093F6028FEF08
:101B12008093ED02FF91EF919F918F915F914F9191
:0E1B22003F912F910F900FBE0F901F901895BE
:101B3000A2E0B0E0EEE9FDE00C944D174C016B0122
:101B4000FB0122813381A480B580808191819A83B9
:101B5000898366807780FA012080318042805380BB
:101B6000B201A10157FE07C044275527BA01421907
:101B700053096409750937FD03C08D7F9A838983F2
:101B8000950157FC05C0898182FD02C083FF02C018
:101B900021503109CE0101967C010AE010E0C60116
:101BA0000E94181057FC03C0298122FF0AC0019728
:101BB000F301E80FF91F57FC02C02BE209C02DE228
:101BC00007C023FF06C00197F301E80FF91F20E2C9
:101BD0002083E980FA80F601208531852150310982
:101BE000281B390B860D971DAC0160E88501C401E7
:101BF0000E9465129C01F4018081918190FF06C0D2
:101C0000F60182819381821793070CF4C901229611
:061C1000E2E10C946917EB
:101C1600CF93DF93DC01F90168387105F1F05CF4CC
:101C26006138710561F164387105C9F16038710573
:101C360009F056C034C0603C710561F1603F710522
:101C460009F443C0603A710509F04AC0C081D181E8
:101C5600CE010296918380832AC0C081D181CE01B4
:101C6600029691838083452B39F04881042E000C1F
:101C7600550B660B770B21C0488150E02EC0C08102
:101C8600D181CE01049691838083488159816A81EE
:101C96007B8113C0C081D181CE0102961AC0C0815A
:101CA600D181CE01029691838083452BA1F0488194
:101CB6005981052E000C660B770B4D935D936D9342
:101CC6007C93139781E090E00DC0C081D181CE0155
:101CD6000396918380834881598160E070E0EDCF5F
:0A1CE60080E090E0DF91CF910895B7
:101CF000A0E0B0E0EEE7FEE00C944F174C01EB01E2
:101D0000FA016901A480B58060847184E680F7805F
:101D10000E94A916F60120813181820F931F9183C1
:101D20008083A114B10421F45301F1E0AF1AB1088A
:101D3000270100E010E021E0621A71080A151B0576
:101D400024F5061517050CF5C4010E9429118F3FD3
:101D5000EFEF9E0721F410161106BCF02DC09C0178
:101D6000205331092830310520F0B4010E942E178C
:101D70000CC0F20181932F010F5F1F4FF60180818C
:101D80009181019691838083D9CFF701E00FF11FF4
:101D90001082B70180E828E030E040E050E00E9487
:101DA0001919288339834A835B836C837D838E83EF
:101DB0009F8380E090E002C08FEF9FEFCDB7DEB74A
:061DC000E0E10C946B173A
:101DC600A0E0B0E0E9EEFEE00C9453175C01FB01E5
:101DD6004A01C480D58000851185E680F7800E947F
:101DE600A916F40120813181820F931F918380838C
:101DF600C114D10421F46801F1E0CF1AD108C0E082
:101E0600D0E001501109CC15DD05BCF5C017D1078E
:101E1600A4F5C5010E9429118F3F2FEF920721F4E7
:101E26001C161D0654F12FC0209789F48B3291059C
:101E360019F08D32910559F4F7018083F401808100
:101E46009181019691838083C1E0D0E0DCCF9C0133
:101E5600205331092A30310520F0B5010E942E1792
:101E66000CC0F701EC0FFD1F80832196F4018081E1
:101E76009181019691838083C6CFCE0DDF1D188296
:101E860080E090E002C08FEF9FEFCDB7DEB7ECE0C9
:041E96000C946F1722
:101E9A00A0E0B0E0E3E5FFE00C9451176C01EB0120
:101EAA005A017901452B49F00E94A916F7012081B0
:101EBA003181820F931F918380836C807D804801DA
:101ECA00C0E0D0E06114710449F5C6010E942911ED
:101EDA008F3FFFEF9F0731F4209789F10115110514
:101EEA0009F527C0A114B10449F08032910551F1D6
:101EFA009C01295031092530310520F101151105C0
:101F0A0011F0F40180832196F70180819181019675
:101F1A0091838083FFEF8F1A9F0AD4CFC615D70506
:101F2A00A4F2DCCFA114B10421F0F801EC0FFD1FDB
:101F3A00108281E090E0CD2B61F480E00AC08FEF3F
:101F4A009FEF07C0B6010E942E170115110589F3EC
:0C1F5A00ECCFCDB7DEB7EEE00C946D17B5
:101F6600CF92DF92EF92FF920F931F93CF93DF935F
:101F760000D000D000D0CDB7DEB76A0179019E014E
:101F86002B5F3F4F40E84F933F932F939E012D5F6A
:101F96003F4F40E84F933F932F939E012F5F3F4F54
:101FA60040E84F933F932F932AED30E040E04F9364
:101FB6003F932F938F937F936F930E9486160FB64E
:101FC600F894DEBF0FBECDBF0397C9F489819A810D
:101FD60088319105B4F42B813C812C3331059CF476
:101FE6002D813E812C33310584F4F60180838B816B
:101FF600F70180838D81F801808381E007C080E04E
:1020060005C080E003C080E001C080E026960FB6E0
:10201600F894DEBF0FBECDBFDF91CF911F910F9118
:0A202600FF90EF90DF90CF90089537
:10203000A0E0B0E0EEE1F0E10C944F17DC012801E4
:102040001696AD90BC901797F701808191811296FA
:10205000ED91FC9113971896CD91DC9119972197EA
:10206000F7FF02C0E1E0F0E0CA0DDB1D1882690154
:10207000A1E0B0E08F01021B130B4C01F2E08F22B4
:102080009924052C000C66087708CE018A199B0953
:10209000CA15DB0519F1411551056105710589F076
:1020A000CB01BA01A30192010E94CC16CA01A62F4E
:1020B000B72F605D6A9341E0C41AD108A901BC0141
:1020C000E4CF98012C0D3D1D121613064CF31C1481
:1020D0001D0434F48114910419F702C080E090E0EB
:1020E000AB2B31F4F701208131812F7E31832083A6
:0A20F000CDB7DEB7E0E10C946B17EA
:1020FA00A2E0B0E0E3E8F0E10C9451175C016B0157
:10210A00FB012281338184809580808191819A8329
:10211A0089836680778037FD03C08D7F9A838983A0
:10212A00FA014081518162817381CE0101967C015D
:10213A0008E010E09401C6010E941810298124FFCA
:10214A0006C00197F301E80FF91F20E320832981D4
:10215A0023FF06C00197F301E80FF91F20E220834D
:10216A00E980FA80F6012085318521503109281B42
:10217A00390B860D971DAC0160E88401C5010E94E8
:10218A0065129C01F5018081918190FF06C0F601DC
:10219A0082819381821793070CF4C9012296EEE09B
:0421AA000C946D170D
:1021AE006F927F928F92EF92FF920F931F93CF9326
:1021BE00DF93CDB7DEB761970FB6F894DEBF0FBED3
:1021CE00CDBFFE01319651E1DF011D925A95E9F71F
:1021DE00A2E0B1E0BA83A9839C838B8377FF09C009
:1021EE008FE490E09093E3028093E2028FEF9FEFF3
:1021FE0019C03901842E7C01615071097F836E8371
:10220E009801682DA301CF010E94B5174885598505
:10221E002E813F814217530708F49A01F701E20F0E
:10222E00F31F108261960FB6F894DEBF0FBECDBFBE
:10223E00DF91CF911F910F91FF90EF908F907F9034
:04224E006F900895F0
:10225200CF93DF93DC011B968D919C911C97009785
:10226200B9F001971C969C938E931B97FD01E80F82
:10227200F91F818517962D913C9118972F5F3F4F3B
:1022820018963C932E931797082E000C990B2EC08C
:102292008D919C91119790FF16C012962D913D91B0
:1022A2004C911497F901849147FD8081082E000C0E
:1022B200990B0097C9F02F5F3F4F4F4F12962D9306
:1022C2003D934C930FC01F96ED91FC915097309720
:1022D20059F0ED01CD0109952F8138852F5F3F4FD0
:1022E20038872F83992702C08FEF9FEFDF91CF911D
:0222F20008954D
:1022F400DF93CF931F930F939A9DF02D219FF00DA1
:102304008B9DF00D8A9DE02DF10D039FF00D029F32
:10231400E00DF11D4E9DE00DF11D5E9DF00D4F9DF4
:10232400F00D7F936F93BF92AF925F934F93D5015C
:102334000E947A188B01AC01D7010E947A18EB0134
:10234400E80FF91FD6010E94E8182F913F91D6019A
:102354000E947A18C60FD71FE81FF91FAF91BF91CB
:102364000E94E8182F913F910E947A18C60FD71F38
:10237400E81FF91FD6010E947A18E60FF71F98018B
:10238400BE01CF0111240F911F91CF91DF910895C8
:10239400CF92DF92EF92DC0190E0292F30E0220F00
:1023A400331F6901032E000CEE086E2DA601435461
:1023B4005E4F6F4F6A01E62EFA018491E7FC80813B
:1023C40081110DC02F5F3F4F032E000C440B23548B
:1023D4003E4F4F4FF901849147FD808124C0CD9039
:1023E400DD90EC901297F6014491E7FC4081841350
:1023F40015C02F5F3F4F032E000C440B23543E4F58
:102404004F4FF901949147FD90815FEFC51AD50AAA
:10241400E50ACD92DD92EC92129701C09F5F9B304A
:0E24240008F4BBCF892FEF90DF90CF90089582
:102432000F931F93CF93DF93DB01109719F48FEF64
:102442009FEF3DC02D913C91119730FF25C017960B
:102452004D915C91189715962D913C9116974217C4
:10246200530778F41296ED91FC911397808312969C
:102472002D913C9113972F5F3F4F13963C932E93D0
:10248200129717962D913C9118972F5F3F4F1896F0
:102492003C932E93179713C01D96ED91FC911E97B6
:1024A200309769F2EB01092F182F0995892B39F61C
:1024B2008F819885019698878F83812F902FDF9146
:0824C200CF911F910F910895C5
:1024CA006F927F928F92AF92BF92CF92DF92EF92EA
:1024DA00FF920F931F93CF93DF935C013A01862EED
:1024EA00E901670181E0C822DD24E0FC03C020176E
:1024FA00310758F09E01682DA301C5010E942915D4
:10250A00C017D10710F0CE0118C07801EC1AFD0AE5
:10251A00E114F10449F0B50180E290E00E94191239
:10252A0081E0E81AF108F4CFCD2831F49E01682D34
:10253A00A301C5010E942915C801DF91CF911F91FE
:10254A000F91FF90EF90DF90CF90BF90AF908F9058
:06255A007F906F900895D0
:102560001F920F920FB60F9211242F933F934F9308
:102570005F936F937F938F939F93AF93BF93EF93EB
:10258000FF938091EB029091EC0201969093EC0204
:102590008093EB028091F4028F5F8093F40220918C
:1025A000EB023091EC028091E9029091EA02281747
:1025B000390778F081E08093F5021092EC021092D6
:1025C000EB024CE052E060E871E080EE92E00E94A5
:1025D0008A13FF91EF91BF91AF919F918F917F915E
:1025E0006F915F914F913F912F910F900FBE0F9080
:0425F0001F9018958B
:1025F400A2E0B0E0E0E0F3E10C9451175C016B0160
:10260400FB012281338184809580808191819A832A
:1026140089836680778037FD03C08D7F9A838983A1
:10262400FA014081518162817381CE0101967C015E
:102634000AE010E09401C6010E941810E980FA80B3
:10264400F6012085318521503109281B390B860D6F
:10265400971DAC0160E88401C5010E9465129C01CC
:10266400F5018081918190FF06C0F60182819381FA
:10267400821793070CF4C9012296EEE00C946D17AF
:10268400CF939B01482FF901849147FD80818032CB
:10269400C9F1682F082E000C770B69507109653059
:1026A400710580F18B3249F5A0E0B0E02F5F3F4F18
:1026B4004F4F02C0A0E0B0E080E090E0CAE0F90132
:1026C400649147FD6081062E000C770B60537109FD
:1026D4006A30710560F4C89FF001C99FF00D1124A0
:1026E4002F5F3F4F4F4FCF01861B970BE8CFAB2B8C
:1026F40069F491958195910909C08D32D9F6A1E0CB
:10270400B0E0D4CF2F5F3F4F4F4FBDCFCF9108954F
:10271400BF92CF92DF92EF92FF920F931F93CF93CA
:10272400DF93EC017B016A010E94031980ED0E9492
:10273400B91880E00E94B9180E941F190E94031959
:1027440081ED0E94B91880E00E945A18B82E80E0EA
:102754000E945A18082F81E00E945A18182F0E94CC
:102764001F198B2D0E94A318F6018083802F0E94CD
:10277400A318F7018083812F0E94A3188883DF9117
:10278400CF911F910F91FF90EF90DF90CF90BF906A
:022794000895A6
:102796001F920F920FB60F9211248F939F93EF9370
:1027A600FF938091C6009091F302913021F481E06D
:1027B6008093F20223C08A3091F08D3081F090919F
:1027C600F9029F37D8F4E091F902F0E0E457FE4FA2
:1027D60080838091F9028F5F8093F9020FC0809108
:1027E600F902882359F0E091F902F0E0E457FE4F30
:1027F600108281E08093F3021092F902FF91EF912B
:0E2806009F918F910F900FBE0F901F9018950D
:102814006F927F928F92CF92DF92EF92FF920F93FB
:102824001F93CF93DF936C01FB013901842EC80100
:10283400C281D38104811581E080F180232B242B74
:1028440031F423ED622E21E0722E20E0822E0097D7
:1028540021F4882DB3010E94E417D7FD04C0C817E2
:10286400D90708F4CE019C01682DA301C6010E947A
:102874006512DF91CF911F910F91FF90EF90DF9040
:0A288400CF908F907F906F90089521
:10288E00DC012D913D914C911297F901849147FDF8
:10289E0080818A3221F080E090E07AE011C02F5FD3
:1028AE003F4F4F4F2D933D934C93DB01ED91FC9198
:1028BE001197CF0102968D939C93808191810895FB
:1028CE002D913D914C911297F901549147FD5081F4
:1028DE0050535A3080F4789FF001799FF00D1124F7
:1028EE00CF01850F911D2F5F3F4F4F4F2D933D937E
:0828FE004C931297E5CF0895F9
:10290600A3E8B0E0E9E8F4E10C9453175C0149014F
:1029160049835A836B83C12CD12C29819A818B815F
:10292600E22FF92F949187FD90819923E9F07401A4
:10293600860120E830E0AE014C5F5F4FBE016F5F5D
:102946007F4FC5010E9434048C0D9D1D8C159D057D
:102956004CF48FE490E09093E3028093E2028FEFD1
:102966009FEF03C06C01D9CFC601CD57DF4FECE016
:042976000C946F1737
:10297A000F931F93CF93DF9300D0CDB7DEB78A01B1
:10298A009E012F5F3F4F40E84F933F932F932CEECA
:10299A0030E040E04F933F932F938F937F936F9351
:1029AA000E9486160FB6F894DEBF0FBECDBF019700
:1029BA0061F489819A819C01225031092B333105B6
:1029CA0030F4F801808381E003C080E001C080E038
:0E29DA000F900F90DF91CF911F910F910895F4
:1029E800CF93DF93DC01FA0161387105A9F06338F0
:1029F800710521F06038710519F50EC0C081D181CB
:102A0800CE010396918380838D919D910D90BC9109
:102A1800A02DE881F9810DC0C081D181CE01039636
:102A280091838083E881F9818D919D910D90BC916E
:102A3800A02D80839183A283B38381E090E002C0BC
:0A2A480080E090E0DF91CF91089547
:102A52006F927F928F92CF92DF92EF920F931F939A
:102A6200CF93DF938C016A01E62EE9013A01862EAB
:102A7200620E731E811C37FD8A94C614D704E804C3
:102A820079F0F6018491E7FC8081B801082E000CF0
:102A9200990B0E9419128FEFC81AD80AE80AEDCFD3
:102AA200CE01DF91CF911F910F91EF90DF90CF90E8
:082AB2008F907F906F90089552
:102ABA00CF93DF93EB01488129813A81E42FF22FEA
:102ACA00249137FD2081203259F0022E000C330B5D
:102ADA00295031092530310518F080E090E019C0FD
:102AEA000E94A916288139814A812F5F3F4F4F4F93
:102AFA00288339834A83F901249147FD20812032B2
:102B0A0089F3022E000C330B295031092530310587
:082B1A0048F3DF91CF9108950B
:102B22000F9387508C3098F4245191E02B3008F4A5
:102B320090E081E0023308F080E021E0073408F4FD
:102B420020E0892B11F42223A9F080E016C02F5037
:102B520091E0283008F490E081E00C3308F080E046
:102B620021E0013508F420E0892B11F4222321F021
:0E2B720080E003C081E001C081E00F91089572
:102B80001F920F920FB60F9211248F93EF93FF9322
:102B9000E091F802F0E0E35FFD4F8081882371F05F
:102BA000E091F802F0E0E35FFD4F80818093C60082
:102BB0008091F8028F5F8093F80209C01092F802AA
:102BC000E1ECF0E080818F7D80831092F102FF9133
:0E2BD000EF918F910F900FBE0F901F901895F0
:102BDE000F931F93CF93DF93EB01BA01FA01068196
:102BEE001781A9010E94E30E8F3FFFEF9F0791F01F
:102BFE00B80180E82AE030E040E050E00E9413196E
:102C0E00288339834A835B836C837D838E839F8382
:0E2C1E0080E090E0DF91CF911F910F9108951B
:102C2C000F931F93CF93DF93EB01BA01FA01068147
:102C3C001781A9010E94E30E8F3FFFEF9F0791F0D0
:102C4C00B80180E82AE030E040E050E00E94191919
:102C5C00288339834A835B836C837D838E839F8334
:0E2C6C0080E090E0DF91CF911F910F910895CD
:102C7A00CF92DF92EF926A01E62EAC01211531055F
:102C8A00C9F0215031094F5F5F4FF6016491E7FCAB
:102C9A006081FA01319760837FEFC71AD70AE70A82
:102CAA006111ECCFFA01240F351F2E173F0711F0DF
:0C2CBA001192FBCFEF90DF90CF900895B7
:102CC6001F93CF93DF93C82FD62F142F0E9403197B
:102CD60080ED0E94B91880E00E94B918812F0E94E9
:102CE60022180E94B9188D2F0E9422180E94B91826
:102CF6008C2F0E9422180E94B9180E941F19DF917A
:062D0600CF911F9108951A
:102D0C00A1E1B0E0ECE8F6E10C945D17CE01019680
:102D1C0021E1FC0111922A95E9F722E031E03A8396
:102D2C0029832E893F89488D2B833C834D839E01BB
:102D3C00245E3F4F498D5A8D6B8D0E949D17619675
:062D4C00E2E00C9479178F
:102D52000F931F93CF93DF938C01C0E0D0E0C801A3
:102D62000E9429118F3F2FEF920779F0803291054F
:102D720051F09C01295031092530310520F0B8016C
:102D82000E942E1702C02196EACFCE01DF91CF9189
:062D92001F910F9108954E
:102D9800A1E21A2EAA1BBB1BFD010DC0AA1FBB1F57
:102DA800EE1FFF1FA217B307E407F50720F0A21BC9
:102DB800B30BE40BF50B661F771F881F991F1A9436
:102DC80069F760957095809590959B01AC01BD0160
:042DD800CF0108958A
:102DDC001092F7021092F40287B1816087B988B122
:102DEC008E7F88B98091F4028330E0F388B18160E2
:102DFC0088B987B18E7F87B98FEF8093ED0281E020
:102E0C0080930401ECE6F0E080818160808308957A
:102E1C00DC01E4EEF2E04081918132812381940F58
:102E2C00930F920F909307012481921306C04C9339
:102E3C008091E602DB018C9303C081E08093F70262
:102E4C0085E0E4EEF2E0DF011D928A95E9F7089542
:102E5C00FB018F3F2FEF9207B9F023853485223089
:102E6C00310594F4A9014F5F5F4F54874387DB0111
:102E7C00A20FB31F19968C932781308521503109ED
:0E2E8C0030872783992708958FEF9FEF0895D1
:102E9A002F923F924F925F926F927F928F929F9260
:102EAA00AF92BF92CF92DF92EF92FF920F931F934E
:102EBA00CF93DF93CDB7DEB7CA1BDB0B0FB6F894FF
:082ECA00DEBF0FBECDBF09946D
:102ED2002A88398848885F846E847D848C849B84A8
:102EE200AA84B984C884DF80EE80FD800C811B81B6
:102EF200AA81B981CE0FD11D0FB6F894DEBF0FBEE5
:062F0200CDBFED010895B2
:102F0800CF92DF92EF926A01E62EDC01280F391F7B
:102F1800A217B30751F0F6014491E7FC40814D93A5
:102F28004FEFC41AD40AE40AF3CFEF90DF90CF90A2
:022F38000895FA
:102F3A00A2E0B0E0E3EAF7E10C945B178C013A8374
:102F4A0029839E012F5F3F4F0E94F000F8012081E4
:102F5A0024FF02C08FEF9FEF2296E4E00C947717CC
:102F6A00A2E0B0E0EBEBF7E10C945B178C013A833B
:102F7A0029839E012F5F3F4F0E948314F80120810D
:102F8A0024FF02C08FEF9FEF2296E4E00C9477179C
:102F9A0091E09093F1029091C10095FD0FC0AB01B1
:102FAA00682F2FE730E08DE092E00E943D161092E4
:0E2FBA000B02E1ECF0E08081806280830895DC
:102FC800CF92DF92EF926B01E82EA82FCB01FC0184
:102FD8002491A7FD2081222319F00196A11DF7CF86
:0C2FE8008C199D09EF90DF90CF900895A8
:102FF4009C01205331092A30310558F080628156F2
:10300400910931E020E0069708F030E0832F922FF9
:08301400089581E090E00895A9
:10301C009C012062215631092A31310550F09C0166
:10302C002053310981E090E02A30310520F080E016
:08303C00089581E090E0089581
:103044009DEC899F912D112496959695969520E156
:10305400929FA0011124990F292F220F220F920F62
:06306400891B842B089576
:10306A00A0E0B0E0EBE3F8E10C945D179E01265F67
:10307A003F4F4F81588569858D819E810E9497189F
:06308A00E2E00C9479174E
:1030900010928000E1E8F0E0108280818A608083F5
:1030A0008FE19EE4909389008093880082E0809372
:0430B0006F00089510
:1030B400811104C084EC8093BC0003C084E8809335
:1030C400BC008091BC008823E4F78091BB00089584
:1030D4006095709580959095309540955095219583
:1030E4003F4F4F4F5F4F6F4F7F4F8F4F9F4F08950D
:1030F400A29FB001B39FC001A39F700D811D112435
:0E310400911DB29F700D811D1124911D089523
:103112009A01462FDC01F901549147FD50815D93DC
:0C3122002F5F3F4F4F4F5111F6CF089523
:10312E000F931F9389019A01462F6FEF7FE70E943D
:08313E00D7101F910F910895B5
:10314600982F92959F70990F292F220F220F920F79
:063156008F70890F08953F
:10315C00EC010E942B190E942A19CE010E942C19F5
:06316C00CE010E942819AB
:103172008093BB0084E88093BC008091BC008823CC
:04318200E4F70895D1
:1031860086E08093C20087E68093C40088E9809336
:04319600C1000895D7
:10319A001092B90088E98093B80084E08093BC005B
:0231AA00089586
:1031AC00FC01480F591FE417F50711F06193FBCF91
:0231BC00089574
:1031BE009C01215631092A31310510F48F7599275A
:0231CE00089562
:1031D0000E947A18460F571FC81FD91F08F431964E
:0231E000089550
:1031E2002A0D3B1D4C1D5D1D6E1D7F1D801F911FF5
:0231F20008953E
:1031F4002A153B054C055D056E057F058007910783
:0232040008952B
:1032060084EA8093BC008091BC008823E4F708958B
:103216009C01215431092A31310508F48062089550
:0C3226000F9301E00E94A0060F91089594
:0C3232000F9300E00E94A0060F91089589
:08323E0084E98093BC000895AF
:0632460080E090E0089515
:04324C000C940000DE
:043250000E946B006D
:023254000895DB
:023256000895D9
:023258000895D7
:02325A00C800AA
:01325C00FF72
:01325D00026E
:00000001FF
