:100000000C9449000C94D2190C94D2190C94D21966
:100010000C94FF0B0C94D2190C94D2190C94D21995
:100020000C94D2190C94D2190C94D2190C946F0E12
:100030000C94D2190C94D2190C94D2190C94D21994
:100040000C94D2190C94D2190C9455140C94451696
:100050000C94D2190C94D2190C94D2190C94D21974
:100060000C94D2190C94D2190100021280021202CF
:10007000140033B202140218800218021900022B75
:100080000219021A80021A021B0033B4021B022555
:10009000800011241FBECFEFD8E0DEBFCDBFE8E661
:1000A000F0E040E017C0B591A591359125910591FB
:1000B00007FD0CC095918591EF01F92FE82F059070
:1000C0000D92A217B307D9F7FE0104C01D92A21723
:1000D000B307E1F7E139F40731F70E94CF080C9438
:0600E0005119F894FFCF56
:1000E6005345545F54494D453D25643A25643A25A8
:1000F60064005345545F544D3D25640041525241BE
:100106004E434120454C20544553540D0A004E4F52
:10011600524D414C00414C45525441005B25303212
:10012600753A253032753A253032755D20543A20BD
:1001360025752043207C20483A2025752525207CDE
:100146002045737461646F3A2025730D0A005B4184
:100156004C455254415D205B253032753A2530328C
:10016600753A253032755D20506172616D65747225
:100176006F732066756572612064652072616E67B3
:100186006F206F7074696D6F2120543A2025752099
:1001960043207C20483A20257525250D0A00455226
:1001A600524F522053454E534F520D0A000D0A002E
:1001B600484F52412043414D42494144413A205B18
:1001C600253032753A253032753A253032755D0D57
:1001D6000A00504552494F444F2043414D42494140
:1001E600444F3A2054203D20253032750D0A0043F5
:1001F6004F4D414E444F20494E56414C49444F0DB8
:020206000A00EC
:1002080068076C094C836A9074A07AC0008068887B
:0602180000846C820081ED
:07021E00286E756C6C2900CD
:06022500286E696C29003F
:01022B00FFD3
:10022C00A0E9B1E0ECE1F1E00C94D6177C01690196
:10023C0049835A836B831D821C82612C712C4E0165
:10024C0026E0820E911C29819A818B81E22FF92F55
:10025C00949187FD9081992309F420C38AE0D401FD
:10026C001D928A95E9F7E1E1F1E0EC0FFD1FFD87A6
:10027C00EC8780E890E09F878E87BE016F5F7F4F91
:10028C00C7010E94B0158C0189819A81AB81FC0158
:10029C002491A7FD208121110EC02C813D81020FDC
:1002AC00131F1D830C83FC012491A7FD2081253293
:1002BC0009F0DDC232C0253281F3C7010E94FD1165
:1002CC005C0189819A81AB81BFEFAB16BB0689F0CB
:1002DC00FC012491A7FD2081022E000C330BA216E9
:1002EC00B30639F0B701C5010E94B7178EEF9FEF27
:1002FC00C9C22C813D812F5F3F4F3D832C830196DA
:10030C00A11D89839A83AB83BE016F5F7F4FC701A9
:10031C000E94B015080F191FB7CF9C014A2F2F5FF1
:10032C003F4F4F4F29833A834B831B861A86F90123
:10033C00249147FD20812A3241F40296A11D898324
:10034C009A83AB8301E010E002C000E010E0698109
:10035C007A818B810E94CC139B878A8729813A8171
:10036C004B81F901849147FD8081082E000C990B7B
:10037C00C0970A9738F42F5F3F4F4F4F29833A832A
:10038C004B83ECCFCE0101960E949E12582E2981F0
:10039C008A819B81E22FF82F849197FD8081082E12
:1003AC00000C990B0E94B7198836910544F58536D7
:1003BC0091050CF0D5C08136910509F4D1C064F4D7
:1003CC0029813A814B818532910509F434C18B35F1
:1003DC00910509F449C143C28336910509F4DFC084
:1003EC008436910509F03BC29E012C5F3F4FA4015E
:1003FC00BE01605F7F4FC7010E94741624C0803716
:10040C00910509F468C0A4F48E36910509F484C0F2
:10041C00CCF58936910509F022C29E012C5F3F4F25
:10042C00A401BE01605F7F4FC7010E941F0A0BC071
:10043C0085379105E1F08837910579F1833791057E
:10044C0009F00DC2D4C097FD1DC289819A81AB8180
:10045C000196A11D89839A83AB830115110509F0BF
:10046C007CC0652D70E0960141E050E050C09E01CB
:10047C002C5F3F4FA401BE01605F7F4FC7010E94FC
:10048C009B1615C09E012C5F3F4FA401BE01605FFF
:10049C007F4FC7010E944C0F0AC09E012C5F3F4F3B
:1004AC00A401BE01605F7F4FC7010E94BA0C97FD8B
:1004BC00E9C189819A81AB810196A11D89839A83B7
:1004CC00AB830115110509F048C0652D70E096014C
:1004DC0040E050E01CC09E012C5F3F4FA401BE01C8
:1004EC00605F7F4FC7010E94BA0C97FDCBC1898119
:1004FC009A81AB810196A11D89839A83AB830115E7
:10050C00110559F5960140E050E060EF70E0CE0126
:10051C0040960E94610DB6C189819A81AB8101968A
:10052C00A11D89839A83AB839D812C81892F880F90
:10053C00880B288B998B8A8B8B8B8C8B8D8B8E8BD2
:10054C008F8B0115110549F4652D70E0960140E083
:10055C0050E0CE0140960E94610D80E090E092C187
:10056C009E012C5F3F4FA401BE01605F7F4FC7010E
:10057C000E94CF1997FD86C189819A81AB81019622
:10058C00A11D89839A83AB830115110531F7652D64
:10059C0070E0A601CE0140960E94471573C1E0E8B9
:1005AC005E125DC18A859B85892B21F481E090E0E8
:1005BC009B878A8789819A81AB810196A11D89834A
:1005CC009A83AB83012B59F4D601ED91FC911197D1
:1005DC00CF0103968D939C930081118102C000E0A2
:1005EC0010E09E012C5F3F4F40E050E01FC0B0E890
:1005FC005B1235C189819A81AB810196A11D8983DA
:10060C009A83AB83012B59F4D601ED91FC91119790
:10061C00CF0103968D939C930081118102C000E061
:10062C0010E09E012C5F3F4F41E050E0B401C70148
:10063C000E94211027C1B0E85B1211C12F5F3F4F00
:10064C004F4F29833A834B83C7010E94FD1185329A
:10065C00910531F48C819D8101969D838C83FCC026
:10066C00B7010E94B71779CFE0E85E12F8C0012BF2
:10067C0059F4D601ED91FC911197CF0103968D930E
:10068C009C930081118102C000E010E0A42FC901ED
:10069C000196A11D89839A83AB83FC018491A7FDEC
:1006AC0080818E3549F42E5F3F4F4F4F29833A831B
:1006BC004B83BB24B39401C0B12C41E051E06B2DB2
:1006CC0070E0CE0140960E948219188A89819A8125
:1006DC00AB81FC012491A7FD20812D3259F40196A8
:1006EC00A11D89839A83AB8381E08B198EAF51E076
:1006FC005B1927C02D35D9F70196A11D89839A83E3
:10070C00AB8381E08B19AF968FAFAF97F0CF882377
:10071C0009F45AC08D32F9F089819A81AB81FC01C0
:10072C002491A7FD2081E1E1F0E0EC0FFD1FE20F29
:10073C00F11D27FDFA9550830196A11D89839A839B
:10074C00AB8329813A814B81F901849147FD8081EA
:10075C008D35E9F639C06C819D818E81E62FF92F9C
:10076C00949187FD90819923B9F29D35A9F22F5F61
:10077C003F4F4F4F29833A834B83EEEFFFEFEC0F44
:10078C00FD1F6081AFEFBFEFAC0FBD1F8C91988147
:10079C00E62FF82F849197FD8081082E000C990B81
:1007AC00F901649147FD6081062E000C770B8617CA
:1007BC0097070CF0B1CF0196E0E1F0E0EC0FFD1FD4
:1007CC00E80FF91F5083ECCF01151105D1F018017A
:1007DC002101401A510AC7010E94FD115C01E1E19F
:1007EC00F0E0EC0FFD1FE80FF91F80818823F1F07A
:1007FC00F101A1921F018C819D8101969D838C83B7
:10080C00E7CFC7010E94FD115C01E1E1F0E0EC0FC4
:10081C00FD1FE80FF91F8081882331F08C819D81A9
:10082C0001969D838C83EDCF412C512CB701C501D2
:10083C000E94B71789819A81AB810196A11D89838A
:10084C009A83AB834114510451F00115110539F011
:10085C00F801E40DF51D108281E090E013C0898150
:10086C009A81AB810196A11D89839A83AB8381E028
:10087C0090E0FFEFAF16BF0611F080E090E091958D
:10088C008195910997FD03C0680E791EDCCC8F3FD2
:10089C002FEF920719F46114710409F0C301C057CA
:0808AC00DE4FE2E10C94F217AB
:1008B4002F923F924F926F927F928F929F92AF921C
:1008C400BF92CF92DF92EF92FF920F931F93CF9339
:1008D400DF93CDB7DEB72E970FB6F894DEBF0FBE09
:1008E400CDBF4C016B0138011A8219828FEF9FEF43
:1008F4009C838B831E821D8258874F833A87298766
:10090400A12CB12CD6012D913D914C912A0D3B1D6A
:10091400411DB7FC4A95F901849147FD80818111FD
:1009240016C0F601208331834283F901849147FD87
:100934008081853209F00FC21901442EFFEF2F1A6E
:100944003F0A4F0AD6012D923D924C921BC085322C
:1009540041F3B401082E000C990B0E94ED124FEFE5
:10096400A41AB40ACFCF2C32DCF02D3229F5298118
:100974003A8121603A8329830196A11DF60180837F
:100984009183A283F60180819181A281FC0124914B
:10099400A7FD20812B3239F729813A812460EACFDF
:1009A400203221F429813A812860E4CF233251F4A2
:1009B40029813A812061DECF203321F429813A81D3
:1009C4002260D8CFB701C6010E94D1149E838D83C3
:1009D40097FF0BC029813A81F1E02F273A832983BD
:1009E4009195819591099E838D8389819A8180FF58
:1009F40003C08D7F9A838983F60180819181A281CE
:100A0400FC012491A7FD20812E3261F40196A11DE1
:100A1400F60180839183A283B701C6010E94D11499
:100A24009C838B83C6010E949E12182FD6012C91A1
:100A340011968C91119712969C91E22FF82F849124
:100A440097FD8081082E000C990B0E94B7198936F6
:100A540009F44AC084F4833609F419C134F48532A4
:100A640009F445C18136E1F050C18436E9F1883694
:100A74000CF4E9C04AC1803709F4B0C03CF48E36A6
:100A840009F4D6C08F3609F46DC03FC1853709F427
:100A94004AC0883709F485C0833709F036C10DC1CF
:100AA400612F70E0A701CE010B960E940000892BF4
:100AB40009F448C1F60180819181A2819C014A2FE9
:100AC4002F5F3F4F4F4F208331834283FC0124919A
:100AD400A7FD2081AE01455F5F4FBE016F5F7F4F71
:100AE400C4010E9400002BC1612F70E0970141E016
:100AF40050E0CE010B960E94DF0E892B09F422C12F
:100B0400F60180819181A2810196A11D8083918348
:100B1400A283AE01455F5F4FBE016F5F7F4FC4018B
:100B24000E94FC0D0CC1612F70E0970140E050E081
:100B3400CE010B960E94DF0E892B09F403C1F60146
:100B440080819181A2810196A11D80839183A283DA
:100B5400AE01455F5F4FBE016F5F7F4FC4010E94CE
:100B64008413EDC0612F70E0970140E050E0CE01A6
:100B74000B960E94DF0E892B09F4E4C0F6018081F4
:100B84009181A2810196A11D80839183A283AE01EC
:100B9400455F5F4FBE016F5F7F4FC4010E945111DB
:100BA400CEC0612F70E0970140E050E0CE010B967B
:100BB4000E94DF0E892B09F4C5C0F6018081918162
:100BC400A2819C014A2F2F5F3F4F4F4F20833183D7
:100BD4004283FC012491A7FD208120C0970140E0BD
:100BE40050E060EF70E0CE010B960E94DF0E892B7F
:100BF40009F4A8C0F60180819181A2810196A11D0A
:100C040080839183A2838B859C85892B31F400E0BA
:100C140010E025E232E040E08CC028E7AE01455FF9
:100C24005F4FBE016F5F7F4FC4010E94120B87C0EC
:100C3400A501460D571D612F70E09701CE010B965B
:100C44000E9400007FC0612F70E0A701CE010B96C7
:100C54000E940000892B09F475C0F60180819181FE
:100C6400A2819C014A2F2F5F3F4F4F4F2083318336
:100C74004283FC012491A7FD2081AE01455F5F4FB3
:100C8400BE016F5F7F4FC4010E94000058C010383E
:100C940009F058C0F60180819181A2810196A11DBD
:100CA40080839183A283D701ED91FC911197CF01A9
:100CB40002968D939C93808126C0103809F042C01F
:100CC400F60180819181A2810196A11D8083918387
:100CD400A283D701ED91FC911197CF0103968D93D7
:100CE4009C9320813181428100E010E022C01038C1
:100CF40049F5F6012081318142812F5F3F4F4F4FEB
:100D04002083318342838B870EC085E28B87F60173
:100D14002082318242821A8219821E821D828FEFC2
:100D24009FEF9C838B839E01255F3F4F40E801E04A
:100D340010E0BE016F5F7F4FC4010E9494148A0DBE
:100D44009B1D0AC0F60180819181A2810196A11D9B
:100D540080839183A283C5012E960FB6F894DEBFDB
:100D64000FBECDBFDF91CF911F910F91FF90EF90F8
:100D7400DF90CF90BF90AF909F908F907F906F90B7
:080D84004F903F902F9008955D
:100D8C00ACE1B0E0ECECF6E00C94D6171B01482E6D
:100D9C00598748873A8329830A8F253231051CF4F9
:100DAC002130310539F486E190E090930C02809368
:100DBC000B02A4C161157105810509F4B8C1FB01D1
:100DCC00149147FC1081112309F498C1842C310132
:100DDC00103239F0812F012E000C990B09970597D1
:100DEC0048F4FFEF6F1A7F0A8F0AF301149187FC06
:100DFC001081EECF1D3259F42FEF621A720A820A5B
:100E0C00F301149187FC108131E0388B0BC01B323D
:100E1C0041F48FEF681A780A880AF301149187FC61
:100E2C001081188A103309F052C0E82C63019FEF2F
:100E3C00C91AD90AE90AF6011491E7FC10818981D3
:100E4C009A818F7E892B09F044C0812F8F7D883544
:100E5C00A9F5E2E06E0E711C811CF301149187FC64
:100E6C001081812F8062082E000C990B81569109FC
:100E7C00212F012E000C330B3A8329834A9738F02B
:100E8C0089819A810E949718892B41F066C18981CA
:100E9C009A810E948B198753803194F336018E2CE2
:100EAC0088859985892B09F030C11B82512C912C96
:100EBC001C8E1B8E1C821D821E825FC1E981FA81F1
:100ECC00EF2B09F452C136018E2C01E00DC000E06D
:100EDC0003C036018E2C01E029813A81232B21F4A9
:100EEC008AE090E09A8389839A8D992399F0E88916
:100EFC00E1111FC0FFEFFA8B2FEF2B8B3FEF3C8BD9
:100F0C008FEF8D8B9FEF9E8BEFEFEF8BF88F2FE793
:100F1C00298F18C03FEF3A8B8FEF8B8B9FEF9C8BF9
:100F2C00EFEFED8BFFEFFE8B2FEF2F8B388F898F31
:100F3C0009C01A8A1B8A1C8A1D8A1E8A1F8A188E4F
:100F4C0090E8998F198A1B82512C912C1C8E1B8E28
:100F5C001C821D821E82EA81EE0FEE0BEA87212F86
:100F6C002062022E000C330B21563109812F012EE9
:100F7C00000C990B2A31310528F40E948B198753E8
:100F8C008F8306C0C0970A9708F096C010531F8332
:100F9C00FF818F2FFF0F990B29813A8182179307BD
:100FAC000CF08AC03989311163C0AB80B52CC92CC7
:100FBC00DC8CEB8CFC800D811E8129813A814A8569
:100FCC00542F642F742F842F942F0E944E1259018A
:100FDC006A017B018C019F81990F990B2F81392F0D
:100FEC00492F592F692F792F892F0E949D192F83F3
:100FFC003B874C875D876E877F87B82FA92F2B8106
:10100C00352D492D5C8D6B8D7C818D819E81AF80C2
:10101C00BB84CC84DD84EE84FF840B2F1A2F0E94BA
:10102C00A61909F070F48A8D882381F12A893B89ED
:10103C004C895D896E897F89888D998D0E94A6194E
:10104C0028F5E2E2F0E0F0930C02E0930B02FA894F
:10105C00FF832B892B873C893C878D898D879E89C3
:10106C009E87EF89EF87B88DA98DF1E0F98B0EC0C3
:10107C002B812F835B869C863C8D3D878B8D8E8749
:10108C009C819F87BD81AE81E1E0E98BFFEF6F1AF8
:10109C007F0A8F0AF301149187FC108101E02F81E4
:1010AC002B835B849C843D853C8F8E858B8F9F85A9
:1010BC009C83BD83AE8353CFE989E11115C0F889B8
:1010CC00FF2391F02B81352D492D5C8D6B8D7C810F
:1010DC008D819E810E94F3182B83532E942E5C8F4E
:1010EC006B8F7C838D839E8328853985232B09F414
:1010FC0044C0011112C0842C31010FC0E885F98560
:10110C00EF2B09F4D2CE842C31011B82512C912C63
:10111C001C8E1B8E1C821D821E82A42DC101B0E070
:10112C00A7FF15C0E885F9857182608226C02885E5
:10113C003985232B09F4B9CE612C712C812C1B829F
:10114C00512C912C1C8E1B8E1C821D821E82E885BC
:10115C00F98560827182828210C0E82C630100E004
:10116C0020E130E03A83298305C001E088E090E07B
:10117C009A83898336018E2CB7CE2B81352D492D40
:10118C005C8D6B8D7C818D819E816C96E2E10C94E3
:02119C00F21748
:10119E00CF93DF93CDB7DEB7C75DD1090FB6F89405
:1011AE00DEBF0FBECDBF0E940319F12C80911E022F
:1011BE00882341F080912002811104C010921E02FA
:1011CE000E94E81680911F02882309F488C01092AD
:1011DE001F02BE016E5F7F4FCE0101960E949717D0
:1011EE008091210281117BC0D980EA806D2D8E2DD8
:1011FE000E941616882359F027E030E044E151E0B2
:10120E0060E0CE0106960E940D18F12C10C027E06A
:10121E0030E04BE151E060E0CE0106960E940D18E1
:10122E00FF2011F0FA9403C06894FF24F1F882E0D5
:10123E00F81649F1CE010696A0E8AF939F938F93CF
:10124E001F92DF921F92EF92809189011F928F93CE
:10125E00809108011F928F9380910A021F928F93A3
:10126E0082E291E0A0E0AF939F938F93CE01805ADC
:10127E009F4F9F938F930E94BE180FB6F894DEBFB8
:10128E000FBECDBF22C01F92DF921F92EF928091B0
:10129E0089011F928F93809108011F928F938091E5
:1012AE000A021F928F9384E591E0A0E0AF939F9383
:1012BE008F93CE01805A9F4F9F938F930E94BE189B
:1012CE000FB6F894DEBF0FBECDBF80911B02811109
:1012DE00FCCFBE01605A7F4F80E80E945618809165
:1012EE002102882369F0109221021092200280912F
:1012FE001B028111FCCF64EA71E080E00E94561857
:10130E0080911D02882309F451CF10921D0249E0ED
:10131E0051E060E8CE0140960E94211980911B0297
:10132E008111FCCF6E0190E1C90ED11CF601019026
:10133E000020E9F7CF0123E030E043EB51E060E01D
:10134E0001970E940D18F0E8EF2E8E2DB6010E9427
:10135E0056188E010B5F1F4F9E012C5F3F4FAE0143
:10136E004D5F5F4F8E2DB6010E948710882359F175
:10137E008D811F928F938C811F928F938B811F92E1
:10138E008F9386EB91E0A0E0AF939F938F93CE0166
:10139E00805A9F4F9F938F930E94BE180FB6F8945A
:1013AE00DEBF0FBECDBF80911B028111FCCFBE01EF
:1013BE00605A7F4F80E80E9456184D816C818B8158
:1013CE000E940C17F3CE8E2DB6010E94E4158823D1
:1013DE0029F180911A020E94791980911A021F92A6
:1013EE008F9388ED91E0A0E0AF939F938F93CE0102
:1013FE00805A9F4F9F938F930E94BE180FB6F894FA
:10140E00DEBF0FBECDBF80911B028111FCCFBE018E
:10141E00605A7F4F80E80E945618C8CE80911B02FA
:10142E008111FCCF65EF71E080E00E945618BECEB0
:10143E00A8E0B0E0E5E2FAE00C94D6174C0178870C
:10144E006F83FA015901848195819A838983E0849F
:10145E00F18426803780C4010E945217F501208145
:10146E003181820F931F9183808389819A81892B89
:10147E0021F4F7013197FA83E9834AE0C42ED12C87
:10148E00612C712C00E010E0C70101979E838D83C3
:10149E0089819A81081719070CF097C0ED81FE819A
:1014AE000E171F070CF091C0C4010E94FD117C01A4
:1014BE009FEFE916F90639F4101611060CF485C0E3
:1014CE008FEF9FEFA4C001151105B1F4EBE2EE16FC
:1014DE00F10421F0FDE2EF16F10471F4F101E08266
:1014EE00F5018081918101969183808366246394B6
:1014FE00712C01E010E0CCCFC101800F911F9C83B5
:10150E008B8306151705C1F538019FEF691A790A05
:10151E00EAE0CE16D10441F4F0E3EF16F10451F5F2
:10152E0028E0C22ED12C28C088E0C816D10411F5AF
:10153E00C701806288379105E9F4C4010E94FD114C
:10154E002C01B4010E94B717C2010E948318892B87
:10155E0071F0EB81FC81E0828301F5018081918144
:10156E0001969183808390E1C92ED12C91CFB40145
:10157E00C20111C0612C712CC701C0970A9770F07F
:10158E00F0E1CF16D10429F4C7010E948318892BEC
:10159E0081F4B401C7010E94B71717C088E0C816BE
:1015AE00D10439F498E3E916F1041CF08AE0C82E50
:1015BE00D12CEB81FC81E0820F5F1F4FF501808102
:1015CE00918101969183808363CFF101E00FF11F2A
:1015DE001082B10180E8FAE0CF16D10439F42AE086
:1015EE0030E040E050E00E94BF1905C0960140E097
:1015FE0050E00E94C519EF81F88520833183428324
:10160E005383648375838683978380E090E0289666
:06161E00E2E10C94F2175A
:10162400AFE0B0E0E8E1FBE00C94D6171C016B01DD
:101634005A8349832B83FB01828193818480958023
:10164400E080F180A680B78097FD03C0E894E1F8BC
:1016540002C081E090E0E981FA814080518062809B
:1016640073809701207133273D832C838401E4FE2A
:1016740007C0411451046104710411F002501109AE
:10168400F701E870FF27FF83EE83E3FE02C00150F9
:101694001109F6010084F185E02D3197FF87EE876B
:1016A400EA0DFB1D10829C01201B310B3987288712
:1016B400C701827099279B878A87EB818E2FEE0F53
:1016C400990B9C01215431093D872C872E853F8538
:1016D4002230310530F48C819D81892B09F041C081
:1016E4005BC0411451046104710459F18E859F85D6
:1016F40001979F878E87C2018F7099278A30910541
:1017040014F4C09602C0895A9F4FEC85FD857A97E0
:1017140048F49C012062215631092A31310510F424
:101724000E948B19EE85FF85EA0DFB1D8083015015
:10173400110984E076946794579447948A95D1F775
:10174400C5CF88859985800F911F1816190674F2E4
:10175400101611060CF0BFCFEA85FB85EF2B31F68E
:10176400BACFE981FA8180819181A281B381892BE9
:101774008A2B8B2B89F0EE85FF85EA0DFB1D3197B3
:101784002B8120838E859F8502979F878E87FC01FE
:10179400EA0DFB1D80E38083EE81FF81EF2B59F07E
:1017A4002E853F85215031093F872E87F901EA0DA7
:1017B400FB1D80E28083F6012085318521503109AB
:1017C4008E859F85281B390B8A0D9B1DAC0160E813
:1017D4008401C1010E9439139C01F101808191812E
:1017E40090FF06C0F60182819381821793070CF45F
:0A17F400C9012F96E2E10C94F217F0
:1017FE001F920F920FB60F9211242F933F938F9338
:10180E009F93EF93FF938091840090918500909326
:10181E00010180930001309B09C0809100019091DD
:10182E000101909303018093020192C08091040103
:10183E00882319F0109204018BC020910001309181
:10184E00010180910201909103012817390750F48C
:10185E008091000190910101805E914B9093010166
:10186E00809300018091000190910101209102016D
:10187E0030910301821B930B909306018093050117
:10188E00809118028F3FC9F4809105019091060155
:10189E008D38910570F08091050190910601843B81
:1018AE00910538F410921802109222021092200222
:1018BE004FC081E0809321024BC080911802883284
:1018CE000CF046C080910501909106018937910573
:1018DE0058F18091050190910601803A910520F50D
:1018EE008091180287781CF48150886F8F5F27E0F3
:1018FE0030E0281B310987FD339581E090E002C06E
:10190E00880F991F2A95E2F7E0911802EE230CF446
:10191E00E95FE595E595E5950E2E000CFF0BE35F6F
:10192E00FD4F9081892B8083809118028F5F809369
:10193E00180280911802883259F4ECE6F0E08081AA
:10194E008E7F808381E080931F028FEF8093180239
:10195E00FF91EF919F918F913F912F910F900FBE1D
:06196E000F901F90189578
:10197400A4E0B0E0E0ECFCE00C94D6177C017C839E
:101984006B83FA01590144805580C084D1846680F8
:1019940077800E945217F50120813181820F931FB5
:1019A400918380834114510421F42601F1E04F1AFC
:1019B4005108130100E010E0C60101979A8389835E
:1019C400041515050CF042C089819A81081719077E
:1019D400ECF5C7010E94FD116C019FEFC916D906F1
:1019E40031F41016110694F18FEF9FEF64C0C60115
:1019F4000E948318892BF1F401301105B1F4C6015A
:101A04000E94B7198837910581F4F30180818033EE
:101A140061F4C7010E94FD114C01B7010E94B71780
:101A2400C4010E948318892B29F4B701C6010E94BE
:101A3400B7170CC0F101C1921F010F5F1F4FF501D1
:101A440080819181019691838083BACFD301A00FC5
:101A5400B11F1C92033011053CF4EB81FC81108210
:101A640011821282138221C0F301329600E010E049
:101A74009801819190ED980F9A3018F0806299EA5C
:101A8400980F84E0000F111F221F331F8A95D1F78E
:101A9400090F111D211D311DAE17BF0751F7EB8131
:101AA400FC8100831183228333831482158216827E
:0E1AB400178280E090E02496E2E10C94F21795
:101AC200CF93DF93FC01D9016838710521F18CF4C1
:101AD2006138710561F12CF46038710509F476C042
:101AE20085C062387105B1F16438710509F46EC0C0
:101AF2007DC0603A710509F469C024F4603971054A
:101B020049F174C0603C710509F460C0603F710521
:101B120009F45CC06BC0CD91DC911197CE010396A4
:101B22008D939C93A881B98180818C935CC0CD9167
:101B3200DC911197CE0103968D939C93A881B98174
:101B420040815181628173814D935D936D937C934A
:101B5200139749C0CD91DC911197CE0103968D93D5
:101B62009C93452B99F0708161815281438134812C
:101B7200258196818781E881F9817083618352830F
:101B8200438334832583968387832DC0A881B981BB
:101B9200708161815281438134812581968187815F
:101BA2007C9311966C93119712965C9312971396ED
:101BB2004C93139714963C93149715962C93159760
:101BC20016969C93169717968C930DC0CD91DC9127
:101BD2001197CE0103968D939C93A881B981808140
:101BE20091818D939C9381E090E002C080E090E02F
:061BF200DF91CF91089580
:101BF800A2E0B0E0E2E0FEE00C94D6174C016B01E5
:101C0800FB0122813381A480B580808191819A83F0
:101C1800898366807780FA012080318042805380F2
:101C2800B201A10157FE07C044275527BA0142193E
:101C380053096409750937FD03C08D7F9A83898329
:101C4800950157FC05C0898182FD02C083FF02C04F
:101C580021503109CE0101967C010AE010E0C6014D
:101C68000E94EC1057FC03C0298122FF0AC001978B
:101C7800F301E80FF91F57FC02C02BE209C02DE25F
:101C880007C023FF06C00197F301E80FF91F20E200
:101C98002083E980FA80F6012085318521503109B9
:101CA800281B390B860D971DAC0160E88501C4011E
:101CB8000E9439139C01F4018081918190FF06C034
:101CC800F60182819381821793070CF4C901229649
:061CD800E2E10C94F2179A
:101CDE001F920F920FB60F9211242F933F934F9393
:101CEE005F936F937F938F939F93AF93BF93EF9376
:101CFE00FF9380911602909117020196909317020E
:101D0E008093160280911402909115020196909381
:101D1E00150280931402809119028F5F809319022D
:101D2E0020911602309117028091120290911302A7
:101D3E002817390778F081E080931E02109217025F
:101D4E001092160249E851E068E071E08AE092E0F4
:101D5E000E941414809114029091150284369105FC
:101D6E00B0F0109215021092140280912002882376
:101D7E0071F0809122028F5F809322028091220265
:101D8E00823028F01092220281E080932102FF918E
:101D9E00EF91BF91AF919F918F917F916F915F91D5
:101DAE004F913F912F910F900FBE0F901F9018954E
:101DBE00CF93DF93DC01F90168387105F1F05CF423
:101DCE006138710561F164387105C9F160387105CA
:101DDE0009F056C034C0603C710561F1603F710579
:101DEE0009F443C0603A710509F04AC0C081D1813F
:101DFE00CE010296918380832AC0C081D181CE010B
:101E0E00029691838083452B39F04881042E000C75
:101E1E00550B660B770B21C0488150E02EC0C08158
:101E2E00D181CE01049691838083488159816A8144
:101E3E007B8113C0C081D181CE0102961AC0C081B0
:101E4E00D181CE01029691838083452BA1F04881EA
:101E5E005981052E000C660B770B4D935D936D9398
:101E6E007C93139781E090E00DC0C081D181CE01AB
:101E7E000396918380834881598160E070E0EDCFB5
:0A1E8E0080E090E0DF91CF9108950D
:101E9800A0E0B0E0E2E5FFE00C94D8174C01EB01BC
:101EA800FA016901A480B58060847184E680F780B6
:101EB8000E945217F60120813181820F931F91836E
:101EC8008083A114B10421F45301F1E0AF1AB108E1
:101ED800270100E010E021E0621A71080A151B05CD
:101EE80024F5061517050CF5C4010E94FD118F3F56
:101EF800EFEF9E0721F410161106BCF02DC09C01CF
:101F0800205331092830310520F0B4010E94B71759
:101F18000CC0F20181932F010F5F1F4FF6018081E2
:101F28009181019691838083D9CFF701E00FF11F4A
:101F38001082B70180E828E030E040E050E00E94DD
:101F4800C519288339834A835B836C837D838E8399
:101F58009F8380E090E002C08FEF9FEFCDB7DEB7A0
:061F6800E0E10C94F41707
:101F6E00A0E0B0E0EDEBFFE00C94DC175C01FB01B0
:101F7E004A01C480D58000851185E680F7800E94D5
:101F8E005217F40120813181820F931F9183808338
:101F9E00C114D10421F46801F1E0CF1AD108C0E0D8
:101FAE00D0E001501109CC15DD05BCF5C017D107E5
:101FBE00A4F5C5010E94FD118F3F2FEF920721F46A
:101FCE001C161D0654F12FC0209789F48B329105F3
:101FDE0019F08D32910559F4F7018083F401808157
:101FEE009181019691838083C1E0D0E0DCCF9C018A
:101FFE00205331092A30310520F0B5010E94B71760
:10200E000CC0F701EC0FFD1F80832196F401808137
:10201E009181019691838083C6CFCE0DDF1D1882EC
:10202E0080E090E002C08FEF9FEFCDB7DEB7ECE01F
:04203E000C94F817EF
:10204200A0E0B0E0E7E2F0E10C94DA176C01EB01FA
:102052005A017901452B49F00E945217F70120815C
:102062003181820F931F918380836C807D80480130
:10207200C0E0D0E06114710449F5C6010E94FD116F
:102082008F3FFFEF9F0731F4209789F1011511056A
:1020920009F527C0A114B10449F08032910551F12C
:1020A2009C01295031092530310520F10115110516
:1020B20011F0F40180832196F701808191810196CC
:1020C20091838083FFEF8F1A9F0AD4CFC615D7055D
:1020D200A4F2DCCFA114B10421F0F801EC0FFD1F32
:1020E200108281E090E0CD2B61F480E00AC08FEF96
:1020F2009FEF07C0B6010E94B7170115110589F3BA
:0C210200ECCFCDB7DEB7EEE00C94F61782
:10210E00CF92DF92EF92FF920F931F93CF93DF93B5
:10211E0000D000D000D0CDB7DEB76A0179019E01A4
:10212E002B5F3F4F40E84F933F932F939E012D5FC0
:10213E003F4F40E84F933F932F939E012F5F3F4FAA
:10214E0040E84F933F932F9326EE30E040E04F93BD
:10215E003F932F938F937F936F930E942F170FB6FA
:10216E00F894DEBF0FBECDBF0397C9F489819A8163
:10217E0088319105B4F42B813C812C3331059CF4CC
:10218E002D813E812C33310584F4F60180838B81C1
:10219E00F70180838D81F801808381E007C080E0A4
:1021AE0005C080E003C080E001C080E026960FB637
:1021BE00F894DEBF0FBECDBFDF91CF911F910F916F
:0A21CE00FF90EF90DF90CF9008958E
:1021D800A0E0B0E0E2EFF0E10C94D817DC012801B0
:1021E8001696AD90BC901797F70180819181129651
:1021F800ED91FC9113971896CD91DC911997219741
:10220800F7FF02C0E1E0F0E0CA0DDB1D18826901AA
:10221800A1E0B0E08F01021B130B4C01F2E08F220A
:102228009924052C000C66087708CE018A199B09A9
:10223800CA15DB0519F1411551056105710589F0CC
:10224800CB01BA01A30192010E947517CA01A62FFA
:10225800B72F605D6A9341E0C41AD108A901BC0197
:10226800E4CF98012C0D3D1D121613064CF31C14D7
:102278001D0434F48114910419F702C080E090E041
:10228800AB2B31F4F701208131812F7E31832083FC
:0A229800CDB7DEB7E0E10C94F417B7
:1022A200A2E0B0E0E7E5F1E10C94DA175C016B0122
:1022B200FB012281338184809580808191819A8380
:1022C20089836680778037FD03C08D7F9A838983F7
:1022D200FA014081518162817381CE0101967C01B4
:1022E20008E010E09401C6010E94EC10298124FF4D
:1022F20006C00197F301E80FF91F20E3208329812B
:1023020023FF06C00197F301E80FF91F20E22083A3
:10231200E980FA80F6012085318521503109281B98
:10232200390B860D971DAC0160E88401C5010E943E
:1023320039139C01F5018081918190FF06C0F6015D
:1023420082819381821793070CF4C9012296EEE0F1
:042352000C94F617DA
:102356006F927F928F92EF92FF920F931F93CF937C
:10236600DF93CDB7DEB761970FB6F894DEBF0FBE29
:10237600CDBFFE01319651E1DF011D925A95E9F775
:10238600A2E0B1E0BA83A9839C838B8377FF09C05F
:102396008FE490E090930C0280930B028FEF9FEFF7
:1023A60019C03901842E7C01615071097F836E83C7
:1023B6009801682DA301CF010E943E1848855985D2
:1023C6002E813F814217530708F49A01F701E20F65
:1023D600F31F108261960FB6F894DEBF0FBECDBF15
:1023E600DF91CF911F910F91FF90EF908F907F908B
:0423F6006F90089547
:1023FA00CF93DF93DC011B968D919C911C970097DC
:10240A00B9F001971C969C938E931B97FD01E80FD8
:10241A00F91F818517962D913C9118972F5F3F4F91
:10242A0018963C932E931797082E000C990B2EC0E2
:10243A008D919C91119790FF16C012962D913D9106
:10244A004C911497F901849147FD8081082E000C64
:10245A00990B0097C9F02F5F3F4F4F4F12962D935C
:10246A003D934C930FC01F96ED91FC915097309776
:10247A0059F0ED01CD0109952F8138852F5F3F4F26
:10248A0038872F83992702C08FEF9FEFDF91CF9173
:02249A000895A3
:10249C00DF93CF931F930F939A9DF02D219FF00DF7
:1024AC008B9DF00D8A9DE02DF10D039FF00D029F89
:1024BC00E00DF11D4E9DE00DF11D5E9DF00D4F9D4B
:1024CC00F00D7F936F93BF92AF925F934F93D501B3
:1024DC000E9412198B01AC01D7010E941219EB0159
:1024EC00E80FF91FD6010E9494192F913F91D60144
:1024FC000E941219C60FD71FE81FF91FAF91BF9189
:10250C000E9494192F913F910E941219C60FD71F48
:10251C00E81FF91FD6010E941219E60FF71F980148
:10252C00BE01CF0111240F911F91CF91DF9108951E
:10253C00CF92DF92EF92DC0190E0292F30E0220F56
:10254C00331F6901032E000CEE086E2DA601485FA7
:10255C005D4F6F4F6A01E62EFA018491E7FC808192
:10256C0081110DC02F5F3F4F032E000C440B285FD1
:10257C003D4F4F4FF901849147FD808124C0CD9090
:10258C00DD90EC901297F6014491E7FC40818413A6
:10259C0015C02F5F3F4F032E000C440B285F3D4F9F
:1025AC004F4FF901949147FD90815FEFC51AD50A01
:1025BC00E50ACD92DD92EC92129701C09F5F9B30A1
:0E25CC0008F4BBCF892FEF90DF90CF900895D9
:1025DA000F931F93CF93DF93DB01109719F48FEFBB
:1025EA009FEF3DC02D913C91119730FF25C0179662
:1025FA004D915C91189715962D913C91169742171B
:10260A00530778F41296ED91FC91139780831296F2
:10261A002D913C9113972F5F3F4F13963C932E9326
:10262A00129717962D913C9118972F5F3F4F189646
:10263A003C932E93179713C01D96ED91FC911E970C
:10264A00309769F2EB01092F182F0995892B39F672
:10265A008F819885019698878F83812F902FDF919C
:08266A00CF911F910F9108951B
:102672006F927F928F92AF92BF92CF92DF92EF9240
:10268200FF920F931F93CF93DF935C013A01862E43
:10269200E901670181E0C822DD24E0FC03C02017C4
:1026A200310758F09E01682DA301C5010E947C15D7
:1026B200C017D10710F0CE0118C07801EC1AFD0A3C
:1026C200E114F10449F0B50180E290E00E94ED12BC
:1026D20081E0E81AF108F4CFCD2831F49E01682D8B
:1026E200A301C5010E947C15C801DF91CF911F9102
:1026F2000F91FF90EF90DF90CF90BF90AF908F90AF
:062702007F906F90089526
:10270800A2E0B0E0EAE8F3E10C94DA175C016B01AF
:10271800FB012281338184809580808191819A8315
:1027280089836680778037FD03C08D7F9A8389838C
:10273800FA014081518162817381CE0101967C0149
:102748000AE010E09401C6010E94EC10E980FA80CA
:10275800F6012085318521503109281B390B860D5A
:10276800971DAC0160E88401C5010E9439139C01E2
:10277800F5018081918190FF06C0F60182819381E5
:10278800821793070CF4C9012296EEE00C94F61711
:10279800CF939B01482FF901849147FD80818032B6
:1027A800C9F1682F082E000C770B69507109653044
:1027B800710580F18B3249F5A0E0B0E02F5F3F4F03
:1027C8004F4F02C0A0E0B0E080E090E0CAE0F9011D
:1027D800649147FD6081062E000C770B60537109E8
:1027E8006A30710560F4C89FF001C99FF00D11248B
:1027F8002F5F3F4F4F4FCF01861B970BE8CFAB2B77
:1028080069F491958195910909C08D32D9F6A1E0B5
:10281800B0E0D4CF2F5F3F4F4F4FBDCFCF9108953A
:10282800BF92CF92DF92EF92FF920F931F93CF93B5
:10283800DF93EC017B016A010E94AF1980ED0E94D1
:102848005C1980E00E945C190E94CB190E94AF19A4
:1028580081ED0E945C1980E00E94E318B82E80E0A8
:102868000E94E318082F81E00E94E318182F0E94A5
:10287800CB198B2D0E944619F6018083802F0E9468
:102888004619F7018083812F0E9446198883DF91BA
:10289800CF911F910F91FF90EF90DF90CF90BF9055
:0228A800089591
:1028AA001F920F920FB60F9211248F939F93EF935B
:1028BA00FF938091C60090911D02913021F481E02E
:1028CA0080931C0223C08A3091F08D3081F0909160
:1028DA0024029F37D8F4E0912402F0E0E75FFE4F2C
:1028EA008083809124028F5F809324020FC080919D
:1028FA002402882359F0E0912402F0E0E75FFE4FBA
:10290A00108281E080931D0210922402FF91EF91C0
:0E291A009F918F910F900FBE0F901F901895F8
:102928006F927F928F92CF92DF92EF92FF920F93E6
:102938001F93CF93DF936C01FB013901842EC801EB
:10294800C281D38104811581E080F180232B242B5F
:1029580031F42EE1622E22E0722E20E0822E0097C2
:1029680021F4882DB3010E946D18D7FD04C0C81743
:10297800D90708F4CE019C01682DA301C6010E9465
:102988003913DF91CF911F910F91FF90EF90DF9056
:0A299800CF908F907F906F9008950C
:1029A200DC012D913D914C911297F901849147FDE3
:1029B20080818A3221F080E090E07AE011C02F5FBE
:1029C2003F4F4F4F2D933D934C93DB01ED91FC9183
:1029D2001197CF0102968D939C93808191810895E6
:1029E2002D913D914C911297F901549147FD5081DF
:1029F20050535A3080F4789FF001799FF00D1124E2
:102A0200CF01850F911D2F5F3F4F4F4F2D933D9368
:082A12004C931297E5CF0895E3
:102A1A00A3E8B0E0E3E1F5E10C94DC175C014901BD
:102A2A0049835A836B83C12CD12C29819A818B814A
:102A3A00E22FF92F949187FD90819923E9F074018F
:102A4A00860120E830E0AE014C5F5F4FBE016F5F48
:102A5A007F4FC5010E945A048C0D9D1D8C159D0542
:102A6A004CF48FE490E090930C0280930B028FEF6A
:102A7A009FEF03C06C01D9CFC601CD57DF4FECE001
:042A8A000C94F81799
:102A8E00CF93DF93DC01FA0161387105A9F0633849
:102A9E00710521F06038710519F50EC0C081D18124
:102AAE00CE010396918380838D919D910D90BC9163
:102ABE00A02DE881F9810DC0C081D181CE01039690
:102ACE0091838083E881F9818D919D910D90BC91C8
:102ADE00A02D80839183A283B38381E090E002C016
:0A2AEE0080E090E0DF91CF910895A1
:102AF8006F927F928F92CF92DF92EF920F931F93F4
:102B0800CF93DF938C016A01E62EE9013A01862E04
:102B1800620E731E811C37FD8A94C614D704E8041C
:102B280079F0F6018491E7FC8081B801082E000C49
:102B3800990B0E94ED128FEFC81AD80AE80AEDCF58
:102B4800CE01DF91CF911F910F91EF90DF90CF9041
:082B58008F907F906F900895AB
:102B6000CF93DF93EB01488129813A81E42FF22F43
:102B7000249137FD2081203259F0022E000C330BB6
:102B8000295031092530310518F080E090E019C056
:102B90000E945217288139814A812F5F3F4F4F4F42
:102BA000288339834A83F901249147FD208120320B
:102BB00089F3022E000C330B2950310925303105E1
:082BC00048F3DF91CF91089565
:102BC800CF93DF9300D0CDB7DEB79E012F5F3F4F85
:102BD80040E84F933F932F9328EF30E040E04F9326
:102BE8003F932F938F937F936F930E942F170FB666
:102BF800F894DEBF0FBECDBF019761F489819A8139
:102C08009C01225031092B33310530F480931A028C
:102C180081E003C080E001C080E00F900F90DF9159
:042C2800CF910895AB
:102C2C0090910A0297509C3098F4845191E08B302B
:102C3C0008F490E081E0623308F080E021E0673432
:102C4C0008F420E0892B11F42223A9F080E00895E8
:102C5C008F5091E0883008F490E081E06C3308F0FC
:102C6C0080E021E0613508F420E0892B11F4222367
:0E2C7C0021F080E0089581E0089581E0089540
:102C8A001F920F920FB60F9211248F93EF93FF9317
:102C9A00E0912302F0E0E657FE4F8081882371F02D
:102CAA00E0912302F0E0E657FE4F80818093C60050
:102CBA00809123028F5F8093230209C0109223021E
:102CCA00E1ECF0E080818F7D808310921B02FF91FE
:0E2CDA00EF918F910F900FBE0F901F901895E5
:102CE8000F931F93CF93DF93EB01BA01FA0106818B
:102CF8001781A9010E94B70F8F3FFFEF9F0791F03F
:102D0800B80180E82AE030E040E050E00E94BF19B6
:102D1800288339834A835B836C837D838E839F8377
:0E2D280080E090E0DF91CF911F910F91089510
:102D36000F931F93CF93DF93EB01BA01FA0106813C
:102D46001781A9010E94B70F8F3FFFEF9F0791F0F0
:102D5600B80180E82AE030E040E050E00E94C51962
:102D6600288339834A835B836C837D838E839F8329
:0E2D760080E090E0DF91CF911F910F910895C2
:102D8400CF92DF92EF926A01E62EAC012115310554
:102D9400C9F0215031094F5F5F4FF6016491E7FCA0
:102DA4006081FA01319760837FEFC71AD70AE70A77
:102DB4006111ECCFFA01240F351F2E173F0711F0D4
:0C2DC4001192FBCFEF90DF90CF900895AC
:102DD000109221021092190287B1816087B988B1DF
:102DE0008E7F88B9809119028330E0F388B18160C9
:102DF00088B987B18E7F87B91092220281E08093D3
:102E000020029FEF9093180280930401ECE6F0E01B
:082E1000808181608083089538
:102E18001F93CF93DF93C82FD62F142F0E94AF197B
:102E280080ED0E945C1980E00E945C19812F0E944D
:102E3800AB180E945C198D2F0E94AB180E945C1978
:102E48008C2F0E94AB180E945C190E94CB19DF914D
:062E5800CF911F910895C7
:102E5E00A1E1B0E0E5E3F7E10C94E617CE010196AF
:102E6E0021E1FC0111922A95E9F722E031E03A8343
:102E7E0029832E893F89488D2B833C834D839E0168
:102E8E00245E3F4F498D5A8D6B8D0E942618619698
:062E9E00E2E00C940218B2
:102EA4000F931F93CF93DF938C01C0E0D0E0C80150
:102EB4000E94FD118F3F2FEF920779F08032910528
:102EC40051F09C01295031092530310520F0B80119
:102ED4000E94B71702C02196EACFCE01DF91CF91AD
:062EE4001F910F910895FB
:102EEA00A1E21A2EAA1BBB1BFD010DC0AA1FBB1F04
:102EFA00EE1FFF1FA217B307E407F50720F0A21B76
:102F0A00B30BE40BF50B661F771F881F991F1A94E2
:102F1A0069F760957095809590959B01AC01BD010C
:042F2A00CF01089536
:102F2E00DC01EDE0F2E04081918132812381940F4A
:102F3E00930F920F909307012481921306C0808104
:102F4E008C938281DB018C9303C081E080932102FC
:102F5E0085E0EDE0F2E0DF011D928A95E9F7089534
:102F6E00FB018F3F2FEF9207B9F023853485223076
:102F7E00310594F4A9014F5F5F4F54874387DB01FE
:102F8E00A20FB31F19968C932781308521503109DA
:0E2F9E0030872783992708958FEF9FEF0895BE
:102FAC002F923F924F925F926F927F928F929F924D
:102FBC00AF92BF92CF92DF92EF92FF920F931F933B
:102FCC00CF93DF93CDB7DEB7CA1BDB0B0FB6F894EC
:082FDC00DEBF0FBECDBF09945A
:102FE4002A88398848885F846E847D848C849B8495
:102FF400AA84B984C884DF80EE80FD800C811B81A3
:10300400AA81B981CE0FD11D0FB6F894DEBF0FBED1
:06301400CDBFED0108959F
:10301A00CF92DF92EF926A01E62EDC01280F391F68
:10302A00A217B30751F0F6014491E7FC40814D9392
:10303A004FEFC41AD40AE40AF3CFEF90DF90CF908F
:02304A000895E7
:10304C00A2E0B0E0ECE2F8E10C94E4178C013A83D6
:10305C0029839E012F5F3F4F0E941601F8012081AA
:10306C0024FF02C08FEF9FEF2296E4E00C9400182F
:10307C00A2E0B0E0E4E4F8E10C94E4178C013A83AC
:10308C0029839E012F5F3F4F0E940D15F80120816F
:10309C0024FF02C08FEF9FEF2296E4E00C940018FF
:1030AC0091E090931B029091C10095FD0FC0AB0174
:1030BC00682F2FE730E08AE891E00E94C216109248
:0E30CC008801E1ECF0E080818062808308954D
:1030DA00CF92DF92EF926B01E82EA82FCB01FC0171
:1030EA002491A7FD2081222319F00196A11DF7CF73
:0C30FA008C199D09EF90DF90CF90089595
:103106009C01205331092A30310558F080628156DE
:10311600910931E020E0069708F030E0832F922FE6
:08312600089581E090E0089596
:10312E009C012062215631092A31310550F09C0153
:10313E002053310981E090E02A30310520F080E003
:08314E00089581E090E008956E
:103156009DEC899F912D112496959695969520E143
:10316600929FA0011124990F292F220F220F920F4F
:06317600891B842B089563
:10317C00A0E0B0E0E4ECF8E10C94E6179E01265FC9
:10318C003F4F4F81588569858D819E810E942F19F3
:06319C00E2E00C940218B1
:1031A20010928000E1E8F0E0108280818A608083E2
:1031B2008FE19EE4909389008093880082E080935F
:0431C2006F000895FD
:1031C600811104C084EC8093BC0003C084E8809322
:1031D600BC008091BC008823E4F78091BB00089571
:1031E6006095709580959095309540955095219570
:1031F6003F4F4F4F5F4F6F4F7F4F8F4F9F4F0895FA
:103206000E943B190E94D1180E9466190E947019EB
:0E321600789462E071E080E00E9456180895FE
:10322400A29FB001B39FC001A39F700D811D112403
:0E323400911DB29F700D811D1124911D0895F2
:103242009A01462FDC01F901549147FD50815D93AB
:0C3252002F5F3F4F4F4F5111F6CF0895F2
:10325E000F931F9389019A01462F6FEF7FE70E940C
:08326E00AB111F910F910895AF
:10327600E8E6F0E0808182608083ECE6F0E0808121
:063286008E7F8083089595
:10328C00982F92959F70990F292F220F220F920F32
:06329C008F70890F0895F8
:1032A200EC010E94D7190E94D619CE010E94D819AA
:0632B200CE010E94D419B8
:1032B8008093BB0084E88093BC008091BC00882385
:0432C800E4F708958A
:1032CC0086E08093C20087E68093C40088E98093EF
:0432DC00C100089590
:1032E0001092B90088E98093B80084E08093BC0014
:0232F00008953F
:1032F20024E6829FC001112490931302809312024C
:0233020008952C
:10330400FC01480F591FE417F50711F06193FBCF37
:0233140008951A
:103316009C01215631092A31310510F48F75992700
:02332600089508
:103328000E941219460F571FC81FD91F08F431965B
:023338000895F6
:10333A002A0D3B1D4C1D5D1D6E1D7F1D801F911F9B
:02334A000895E4
:10334C002A153B054C055D056E057F058007910729
:02335C000895D2
:10335E0084EA8093BC008091BC008823E4F7089532
:10336E009C01215431092A31310508F480620895F7
:0C337E000F9301E00E94C6060F91089515
:0C338A000F9300E00E94C6060F9108950A
:0833960084E98093BC00089556
:06339E0080E090E00895BC
:0433A4000C94000085
:0433A8000E9471000E
:0233AC00089582
:0233AE00089580
:0233B00008957E
:0233B200C80051
:0133B4000216
:00000001FF
