:100000000C9440000C94D00A0C94D00A0C94D00AA2
:100010000C94E9030C94D00A0C94D00A0C94D00AE6
:100020000C94D00A0C94D00A0C94D00A0C944D096C
:100030000C94D00A0C94D00A0C94D00A0C94D00AD8
:100040000C94D00A0C94D00A0C94F8070C941E0956
:100050000C94D00A0C94D00A0C94D00A0C94D00AB8
:100060000C94D00A0C94D00A0100019180019101F6
:10007000950015AE0195019600011F0196019F8024
:1000800011241FBECFEFD8E0DEBFCDBFE8E6F0E021
:1000900040E017C0B591A59135912591059107FDD7
:1000A0000CC095918591EF01F92FE82F05900D92E5
:1000B000A217B307D9F7FE0104C01D92A217B30718
:1000C000E1F7E038F40731F70E94BD050C94AA0A65
:0400D000F894FFCFD2
:1000D400415252414E434120454C20544553540D06
:1000E4000A00416E6475766F20656C2073656E73CB
:0800F4006F720D0A0025750072
:1000FC0068076C094C836A9074A07AC00080688889
:06010C0000846C820081FA
:07011200286E756C6C2900DA
:06011900286E696C29004C
:01011F00FFE0
:100120002F923F924F926F927F928F929F92AF92B7
:10013000BF92CF92DF92EF92FF920F931F93CF93D4
:10014000DF93CDB7DEB72E970FB6F894DEBF0FBEA4
:10015000CDBF4C016B0138011A8219828FEF9FEFDE
:100160009C838B831E821D8258874F833A87298701
:10017000A12CB12CD6012D913D914C912A0D3B1D06
:10018000411DB7FC4A95F901849147FD8081811199
:1001900016C0F601208331834283F901849147FD23
:1001A0008081853209F00FC21901442EFFEF2F1A0A
:1001B0003F0A4F0AD6012D923D924C921BC08532C8
:1001C00041F3B401082E000C990B0E9419074FEF60
:1001D000A41AB40ACFCF2C32DCF02D3229F52981B4
:1001E0003A8121603A8329830196A11DF60180831B
:1001F0009183A283F60180819181A281FC012491E7
:10020000A7FD20812B3239F729813A812460EACF7A
:10021000203221F429813A812860E4CF233251F43D
:1002200029813A812061DECF203321F429813A816E
:100230002260D8CFB701C6010E9474089E838D83C7
:1002400097FF0BC029813A81F1E02F273A83298358
:100250009195819591099E838D8389819A8180FFF3
:1002600003C08D7F9A838983F60180819181A28169
:10027000FC012491A7FD20812E3261F40196A11D7D
:10028000F60180839183A283B701C6010E9474089E
:100290009C838B83C6010E94CA06182FD6012C911D
:1002A00011968C91119712969C91E22FF82F8491C0
:1002B00097FD8081082E000C990B0E94C80A893690
:1002C00009F44AC084F4833609F419C134F4853240
:1002D00009F445C18136E1F050C18436E9F1883630
:1002E0000CF4E9C04AC1803709F4B0C03CF48E3642
:1002F00009F4D6C08F3609F46DC03FC1853709F4C3
:100300004AC0883709F485C0833709F036C10DC16A
:10031000612F70E0A701CE010B960E940000892B8F
:1003200009F448C1F60180819181A2819C014A2F84
:100330002F5F3F4F4F4F208331834283FC01249135
:10034000A7FD2081AE01455F5F4FBE016F5F7F4F0C
:10035000C4010E9400002BC1612F70E0970141E0B1
:1003600050E0CE010B960E94EB04892B09F422C1C8
:10037000F60180819181A2810196A11D80839183E4
:10038000A283AE01455F5F4FBE016F5F7F4FC40127
:100390000E9478040CC1612F70E0970140E050E0AA
:1003A000CE010B960E94EB04892B09F403C1F601E0
:1003B00080819181A2810196A11D80839183A28376
:1003C000AE01455F5F4FBE016F5F7F4FC4010E946A
:1003D000B007EDC0612F70E0970140E050E0CE0122
:1003E0000B960E94EB04892B09F4E4C0F60180818E
:1003F0009181A2810196A11D80839183A283AE0188
:10040000455F5F4FBE016F5F7F4FC4010E941E06B4
:10041000CEC0612F70E0970140E050E0CE010B9616
:100420000E94EB04892B09F4C5C0F60180819181FB
:10043000A2819C014A2F2F5F3F4F4F4F2083318372
:100440004283FC012491A7FD208120C0970140E058
:1004500050E060EF70E0CE010B960E94EB04892B18
:1004600009F4A8C0F60180819181A2810196A11DA5
:1004700080839183A2838B859C85892B31F400E056
:1004800010E029E131E040E08CC028E7AE01455F93
:100490005F4FBE016F5F7F4FC4010E94FC0287C0A7
:1004A000A501460D571D612F70E09701CE010B96F7
:1004B0000E9400007FC0612F70E0A701CE010B9663
:1004C0000E940000892B09F475C0F601808191819A
:1004D000A2819C014A2F2F5F3F4F4F4F20833183D2
:1004E0004283FC012491A7FD2081AE01455F5F4F4F
:1004F000BE016F5F7F4FC4010E94000058C01038DA
:1005000009F058C0F60180819181A2810196A11D58
:1005100080839183A283D701ED91FC911197CF0144
:1005200002968D939C93808126C0103809F042C0BA
:10053000F60180819181A2810196A11D8083918322
:10054000A283D701ED91FC911197CF0103968D9372
:100550009C9320813181428100E010E022C010385C
:1005600049F5F6012081318142812F5F3F4F4F4F86
:100570002083318342838B870EC085E28B87F6010F
:100580002082318242821A8219821E821D828FEF5E
:100590009FEF9C838B839E01255F3F4F40E801E0E6
:1005A00010E0BE016F5F7F4FC4010E9437088A0DC3
:1005B0009B1D0AC0F60180819181A2810196A11D37
:1005C00080839183A283C5012E960FB6F894DEBF77
:1005D0000FBECDBFDF91CF911F910F91FF90EF9094
:1005E000DF90CF90BF90AF909F908F907F906F9053
:0805F0004F903F902F900895F9
:1005F800AFE0B0E0E2E0F3E00C94FD091C016B0110
:100608005A8349832B83FB0182819381848095805F
:10061800E080F180A680B78097FD03C0E894E1F8F8
:1006280002C081E090E0E981FA81408051806280D7
:1006380073809701207133273D832C838401E4FE66
:1006480007C0411451046104710411F002501109EA
:10065800F701E870FF27FF83EE83E3FE02C0015035
:100668001109F6010084F185E02D3197FF87EE87A7
:10067800EA0DFB1D10829C01201B310B398728874E
:10068800C701827099279B878A87EB818E2FEE0F8F
:10069800990B9C01215431093D872C872E853F8574
:1006A8002230310530F48C819D81892B09F041C0BD
:1006B8005BC0411451046104710459F18E859F8512
:1006C80001979F878E87C2018F7099278A3091057D
:1006D80014F4C09602C0895A9F4FEC85FD857A971D
:1006E80048F49C012062215631092A31310510F461
:1006F8000E94BF0AEE85FF85EA0DFB1D808301502D
:10070800110984E076946794579447948A95D1F7B1
:10071800C5CF88859985800F911F1816190674F220
:10072800101611060CF0BFCFEA85FB85EF2B31F6CA
:10073800BACFE981FA8180819181A281B381892B25
:100748008A2B8B2B89F0EE85FF85EA0DFB1D3197EF
:100758002B8120838E859F8502979F878E87FC013A
:10076800EA0DFB1D80E38083EE81FF81EF2B59F0BA
:100778002E853F85215031093F872E87F901EA0DE3
:10078800FB1D80E28083F6012085318521503109E7
:100798008E859F85281B390B8A0D9B1DAC0160E84F
:1007A8008401C1010E9465079C01F101808191814A
:1007B80090FF06C0F60182819381821793070CF49B
:0A07C800C9012F96E2E10C94190A12
:1007D2001F920F920FB60F9211242F933F934F93B4
:1007E2005F938F939F93EF93FF93809184009091F7
:1007F20085009093010180930001309B05C0909386
:1008020003018093020166C020910401222319F0A2
:10081200109204015FC020910201309103018217FE
:10082200930730F4805E914B909301018093000115
:100832008091000190910101821B930B909306011C
:1008420080930501209195012F3F59F48D5891090C
:10085200879718F4109295013DC081E080939B0127
:1008620039C02832BCF589579109879718F5E22FCC
:10087200222314F4E7E0E20FE595E595E5950E2EC7
:10088200000CFF0B822F87781CF48150886F8F5FDA
:1008920047E050E0481B510987FD539581E090E005
:1008A20002C0880F991F4A95E2F7E457FE4F9081E4
:1008B200892B80832F5F20939501283259F4ECE62F
:1008C200F0E080818E7F808381E080939A018FEFB8
:1008D20080939501FF91EF919F918F915F914F913D
:0E08E2003F912F910F900FBE0F901F90189511
:1008F000A2E0B0E0EEE7F4E00C94FD094C016B01DE
:10090000FB0122813381A480B580808191819A830B
:10091000898366807780FA0120803180428053800D
:10092000B201A10157FE07C044275527BA01421959
:1009300053096409750937FD03C08D7F9A83898344
:10094000950157FC05C0898182FD02C083FF02C06A
:1009500021503109CE0101967C010AE010E0C60168
:100960000E94580557FC03C0298122FF0AC0019745
:10097000F301E80FF91F57FC02C02BE209C02DE27A
:1009800007C023FF06C00197F301E80FF91F20E21B
:100990002083E980FA80F6012085318521503109D4
:1009A000281B390B860D971DAC0160E88501C40139
:1009B0000E9465079C01F4018081918190FF06C02F
:1009C000F60182819381821793070CF4C901229664
:0609D000E2E10C94190A9B
:1009D600CF93DF93DC01F90168387105F1F05CF41F
:1009E6006138710561F164387105C9F160387105C6
:1009F60009F056C034C0603C710561F1603F710575
:100A060009F443C0603A710509F04AC0C081D1813A
:100A1600CE010296918380832AC0C081D181CE0106
:100A2600029691838083452B39F04881042E000C71
:100A3600550B660B770B21C0488150E02EC0C08154
:100A4600D181CE01049691838083488159816A8140
:100A56007B8113C0C081D181CE0102961AC0C081AC
:100A6600D181CE01029691838083452BA1F04881E6
:100A76005981052E000C660B770B4D935D936D9394
:100A86007C93139781E090E00DC0C081D181CE01A7
:100A96000396918380834881598160E070E0EDCFB1
:0A0AA60080E090E0DF91CF91089509
:100AB000A0E0B0E0EEE5F5E00C94FF09DC012801D0
:100AC0001696AD90BC901797F70180819181129690
:100AD000ED91FC9113971896CD91DC911997219780
:100AE000F7FF02C0E1E0F0E0CA0DDB1D18826901EA
:100AF000A1E0B0E08F01021B130B4C01F2E08F224A
:100B00009924052C000C66087708CE018A199B09E8
:100B1000CA15DB0519F1411551056105710589F00B
:100B2000CB01BA01A30192010E949B09CA01A62F21
:100B3000B72F605D6A9341E0C41AD108A901BC01D6
:100B4000E4CF98012C0D3D1D121613064CF31C1416
:100B50001D0434F48114910419F702C080E090E080
:100B6000AB2B31F4F701208131812F7E318320833B
:0A0B7000CDB7DEB7E0E10C941B0ADC
:100B7A00CF93DF9300D000D0CDB7DEB7E8E6F0E040
:100B8A00808182608083ECE6F0E080818E7F8083C2
:100B9A000E948C0A83B7817F83BF83B7816083BF3A
:100BAA000E94B50A789464ED70E080E00E944C0AD5
:100BBA0080919101909192010197D1F7109292013F
:100BCA00109291010E94BD0980919A018823E1F354
:100BDA0010929A0169E871E088E891E00E94DD09C3
:100BEA0080919B018111E4CF66EE70E080E00E9463
:100BFA004C0A809189011F928F9389EF90E0A0E0BF
:100C0A00AF939F938F93CE0101969F938F930E94E8
:100C1A00790A0FB6F894DEBF0FBECDBF8091960158
:100C2A008111FCCFBE016F5F7F4F80E80E944C0AA2
:020C3A00BFCF2A
:100C3C00A2E0B0E0E4E2F6E00C94010A5C016B0186
:100C4C00FB012281338184809580808191819A83FC
:100C5C0089836680778037FD03C08D7F9A83898373
:100C6C00FA014081518162817381CE0101967C0130
:100C7C0008E010E09401C6010E945805298124FF68
:100C8C0006C00197F301E80FF91F20E320832981A7
:100C9C0023FF06C00197F301E80FF91F20E2208320
:100CAC00E980FA80F6012085318521503109281B15
:100CBC00390B860D971DAC0160E88401C5010E94BB
:100CCC0065079C01F5018081918190FF06C0F601BA
:100CDC0082819381821793070CF4C9012296EEE06E
:040CEC000C941D0A3D
:100CF0006F927F928F92EF92FF920F931F93CF93F9
:100D0000DF93CDB7DEB761970FB6F894DEBF0FBEA5
:100D1000CDBFFE01319651E1DF011D925A95E9F7F1
:100D2000A2E0B1E0BA83A9839C838B8377FF09C0DB
:100D30008FE490E090938B0180938A018FEF9FEF77
:100D400019C03901842E7C01615071097F836E8343
:100D50009801682DA301CF010E94340A4885598566
:100D60002E813F814217530708F49A01F701E20FE1
:100D7000F31F108261960FB6F894DEBF0FBECDBF91
:100D8000DF91CF911F910F91FF90EF908F907F9007
:040D90006F900895C3
:100D9400CF92DF92EF92DC0190E0292F30E0220F16
:100DA400331F6901032E000CEE086E2DA60144507A
:100DB4005F4F6F4F6A01E62EFA018491E7FC808150
:100DC40081110DC02F5F3F4F032E000C440B2450A4
:100DD4003F4F4F4FF901849147FD808124C0CD904E
:100DE400DD90EC901297F6014491E7FC4081841366
:100DF40015C02F5F3F4F032E000C440B24503F4F70
:100E04004F4FF901949147FD90815FEFC51AD50AC0
:100E1400E50ACD92DD92EC92129701C09F5F9B3060
:0E0E240008F4BBCF892FEF90DF90CF90089598
:100E32000F931F93CF93DF93DB01109719F48FEF7A
:100E42009FEF3DC02D913C91119730FF25C0179621
:100E52004D915C91189715962D913C9116974217DA
:100E6200530778F41296ED91FC91139780831296B2
:100E72002D913C9113972F5F3F4F13963C932E93E6
:100E8200129717962D913C9118972F5F3F4F189606
:100E92003C932E93179713C01D96ED91FC911E97CC
:100EA200309769F2EB01092F182F0995892B39F632
:100EB2008F819885019698878F83812F902FDF915C
:080EC200CF911F910F910895DB
:100ECA006F927F928F92AF92BF92CF92DF92EF9200
:100EDA00FF920F931F93CF93DF935C013A01862E03
:100EEA00E901670181E0C822DD24E0FC03C0201784
:100EFA00310758F09E01682DA301C5010E94EA0836
:100F0A00C017D10710F0CE0118C07801EC1AFD0AFB
:100F1A00E114F10449F0B50180E290E00E9419075A
:100F2A0081E0E81AF108F4CFCD2831F49E01682D4A
:100F3A00A301C5010E94EA08C801DF91CF911F9160
:100F4A000F91FF90EF90DF90CF90BF90AF908F906E
:060F5A007F906F900895E6
:100F6000A2E0B0E0E6EBF7E00C94010A5C016B0153
:100F7000FB012281338184809580808191819A83D5
:100F800089836680778037FD03C08D7F9A8389834C
:100F9000FA014081518162817381CE0101967C0109
:100FA0000AE010E09401C6010E945805E980FA8029
:100FB000F6012085318521503109281B390B860D1A
:100FC000971DAC0160E88401C5010E9465079C0182
:100FD000F5018081918190FF06C0F60182819381A5
:100FE000821793070CF4C9012296EEE00C941D0AB7
:100FF0001F920F920FB60F9211248F939F93EF932E
:10100000FF938091C60090919801913021F481E086
:101010008093970123C08A3091F08D3081F09091B8
:101020009E019F33D8F4E0919E01F0E0E85FFE4F0F
:10103000808380919E018F5F80939E010FC080917D
:101040009E01882359F0E0919E01F0E0E85FFE4F99
:10105000108281E08093980110929E01FF91EF91A0
:0E1060009F918F910F900FBE0F901F901895CB
:10106E006F927F928F92CF92DF92EF92FF920F93B9
:10107E001F93CF93DF936C01FB013901842EC801BE
:10108E00C281D38104811581E080F180232B242B32
:10109E0031F422E1622E21E0722E20E0822E0097A2
:1010AE0021F4882DB3010E94630AD7FD04C0C8172E
:1010BE00D90708F4CE019C01682DA301C6010E9438
:1010CE006507DF91CF911F910F91FF90EF90DF9009
:0A10DE00CF908F907F906F900895DF
:1010E800DC012D913D914C911297F901849147FDB6
:1010F80080818A3221F080E090E07AE011C02F5F91
:101108003F4F4F4F2D933D934C93DB01ED91FC9155
:101118001197CF0102968D939C93808191810895B8
:101128002D913D914C911297F901549147FD5081B1
:1011380050535A3080F4789FF001799FF00D1124B4
:10114800CF01850F911D2F5F3F4F4F4F2D933D933B
:081158004C931297E5CF0895B6
:10116000A3E8B0E0E6EBF8E00C94030A5C01490167
:1011700049835A836B83C12CD12C29819A818B811D
:10118000E22FF92F949187FD90819923E9F0740162
:10119000860120E830E0AE014C5F5F4FBE016F5F1B
:1011A0007F4FC5010E9490008C0D9D1D8C159D05E3
:1011B0004CF48FE490E090938B0180938A018FEF41
:1011C0009FEF03C06C01D9CFC601CD57DF4FECE0D4
:0411D0000C941F0A52
:1011D4006F927F928F92CF92DF92EF920F931F9331
:1011E400CF93DF938C016A01E62EE9013A01862E42
:1011F400620E731E811C37FD8A94C614D704E8045A
:1012040079F0F6018491E7FC8081B801082E000C86
:10121400990B0E9419078FEFC81AD80AE80AEDCF74
:10122400CE01DF91CF911F910F91EF90DF90CF907E
:081234008F907F906F900895E8
:10123C001F920F920FB60F9211248F93EF93FF937F
:10124C00E0919D01F0E0E85BFE4F8081882371F016
:10125C00E0919D01F0E0E85BFE4F80818093C60039
:10126C0080919D018F5F80939D0109C010929D011B
:10127C00E1ECF0E080818F7D808310929601FF91EC
:0E128C00EF918F910F900FBE0F901F9018954D
:10129A001F920F920FB60F9211242F933F938F93A1
:1012AA009F9380919C018F5F80939C01809199010B
:1012BA008F5F8093990180919C0190E02091930126
:1012CA00309194018217930710F010929C019F911C
:1012DA008F913F912F910F900FBE0F901F901895ED
:1012EA00CF92DF92EF926A01E62EAC012115310509
:1012FA00C9F0215031094F5F5F4FF6016491E7FC55
:10130A006081FA01319760837FEFC71AD70AE70A2B
:10131A006111ECCFFA01240F351F2E173F0711F088
:0C132A001192FBCFEF90DF90CF90089560
:10133600A1E21A2EAA1BBB1BFD010DC0AA1FBB1FD3
:10134600EE1FFF1FA217B307E407F50720F0A21B45
:10135600B30BE40BF50B661F771F881F991F1A94B2
:1013660069F760957095809590959B01AC01BD01DC
:04137600CF01089506
:10137A0010929B011092990187B1816087B988B157
:10138A008E7F88B9809199018330E0F388B18160BA
:10139A0088B987B18E7F87B98FEF8093950181E0F5
:1013AA0080930401ECE6F0E08081816080830895F7
:1013BA00DC01ECE8F1E04081918132812381940FD4
:1013CA00930F920F909307012481921306C04C93B6
:1013DA0080918E01DB018C9303C081E080939B0195
:1013EA0085E0ECE8F1E0DF011D928A95E9F70895BE
:1013FA002F923F924F925F926F927F928F929F921B
:10140A00AF92BF92CF92DF92EF92FF920F931F9308
:10141A00CF93DF93CDB7DEB7CA1BDB0B0FB6F894B9
:08142A00DEBF0FBECDBF099427
:101432002A88398848885F846E847D848C849B8462
:10144200AA84B984C884DF80EE80FD800C811B8170
:10145200AA81B981CE0FD11D0FB6F894DEBF0FBE9F
:06146200CDBFED0108956D
:10146800A2E0B0E0EAE3FAE00C940B0A8C013A83BC
:1014780029839E012F5F3F4F0E94B008F801208109
:1014880024FF02C08FEF9FEF2296E4E00C94270A16
:1014980091E0909396019091C10095FD0FC0AB012A
:1014A800682F2FE330E088E491E00E9475091092DC
:0E14B8004701E1ECF0E08081806280830895BE
:1014C600CF92DF92EF926B01E82EA82FCB01FC01A1
:1014D6002491A7FD2081222319F00196A11DF7CFA3
:0C14E6008C199D09EF90DF90CF900895C5
:1014F200A0E0B0E0EFE7FAE00C940D0A9E01265F4F
:101502003F4F4F81588569858D819E810E949E0A39
:06151200E2E00C94290A3E
:1015180010928000E1E8F0E0108280818A60808388
:101528008FE19EE4909389008093880082E0809305
:041538006F000895A3
:10153C000F931F9389019A01462F6FEF7FE70E944B
:08154C0078061F910F9108952C
:10155400EC010E94D50A0E94D40ACE010E94D60A48
:06156400CE010E94D20A34
:10156A0086E08093C20087E68093C40088E980936E
:04157A00C10008950F
:10157E009C01215631092A31310510F48F759927B6
:02158E000895BE
:101590009C01215431092A31310508F480620895F3
:0415A0000C940000A7
:0415A4000E94680039
:0215A8000895A4
:0215AA000895A2
:0215AC000895A0
:0215AE0001003A
:0215B0006400D5
:00000001FF
